:03000000020350A8
:0C035000787FE4F6D8FD75813802039731
:0604B5000431009896805E
:080449008F388E378D368C359B
:10045100E4FBFA783574FF120278EC4D4E4F6013CD
:10046100E4FAFBD3EB94E8EA940350E70BBB0001F9
:030471000A80F00E
:010474002265
:10049500C2B47F0A7E007D007C00120449D2B422DA
:1004A50075A4FF75A5FF75A6FF75A7FF75E3402227
:0404C20075B20722E6
:0604BC001204A50204C2B7
:1004750075FFDE75FFAD1204BC1203DCAF34AE337D
:10048500AD32AC31E41201A912029612041B80FEB2
:100296008F388E378D368C35E4F508F509F50AF575
:1002A6000BFFFE7D807C43AB38AA37A936A83512F2
:1002B60000037B187A0D798F784D12010C1201E735
:1002C600E48F0CFFFE7D807C47AB38AA37A936A8A1
:1002D600351200037B187A0D798F784D12010C12B6
:1002E60001E7E48F0DFFFE7D807C4BAB38AA37A972
:1002F60036A8351200037B187A0D798F784D1201D6
:100306000C1201E7E48F0EF50FF510F511F512F555
:1003160013F514F515F516F517F518F519F51AF57B
:100326001BF51CF51DF51EF51FF520F521F522F52B
:1003360023F524F525F526F527F528F529F52AF5DB
:0A0346002BF52CF52DF52EF52F22D6
:10041B00C2B3C2B5D283E4F530FF8530A074082F88
:10042B00F8E6F590C2B7D2B7C2B705300FBF28EACE
:0E043B001204957F027E007D007C00020449C1
:1003DC00C2B375A01DE4F590C2B7D2B7C2B775A071
:1003EC001E759045C2B7D2B7C2B775A01FF590C2A3
:1003FC00B7D2B7C2B775A020759040C2B7D2B7C2FA
:0F040C00B71204957F027E007D007C0002044938
:10000300EC4D6011E8497017ED33EC3304600DE4F7
:10001300FCFFFEFD22E933E8330470F802025312B9
:10002300021E58046009E4CC2481500628500902BA
:10003300025D28400302025AC0E0EB4A7044B980D3
:1000430006D0E0FB020249EF4E701CBD8008EBFFB7
:10005300EAFEE9FD80EBE98DF0A4FEE5F00200EC99
:10006300E9CDF9EAFEEBFFEF89F0A4FCE5F0CE89D8
:10007300F0A42EFFE435F0CD89F0A42DFEE435F095
:100083008067EF4E7005BD80D780C3EF8BF0A4ACC3
:10009300F0EE8BF0A42CFCE435F0F8EF8AF0A42CFE
:1000A300E5F038FCE433CB8DF0A42CFCE5F03BF811
:1000B300EE8AF0A42CFCE5F038F8E433CF89F0A401
:1000C3002CFCE5F038CF3400CE89F0A42FFFE5F007
:1000D3003EFEE433C98DF0A42EFEE5F039CD8AF05F
:1000E300A42FFFE5F03EFEE43DFD33D0E0FB5007D7
:1000F3000BBB000F02025DEC2CFCEF33FFEE33FE73
:06010300ED33FD020235A0
:1001090002025DEC5D046005E859047003020253C4
:1001190012021E580460F6EC4860F2EC7004FDFE11
:10012900FF22C860DB2481C85009C39860025006C9
:1001390002025A9850CAF582E9294B4A7005AB82E6
:1001490002024975F0007C1A7880C3EF9BEE9AEDA4
:1001590099400DC3EF9BFFEE9AFEED99FDE842F041
:10016900DC23ACF0D0E0FFD0E0FED0E0FDAB822094
:10017900E7101BEB60BAEC2CFCEF33FFEE33FEED1E
:1001890033FD020235E803F830E705C0F075F000E9
:10019900EF2FFFEE33FEED33FD40B830E7C280AA02
:1001A90075F020800E75F010800575F0087D007ED1
:1001B900007F003392D530D503120268EC3340102A
:1001C900EF33FFEE33FEED33FDEC33FCD5F0ED22DA
:0E01D900E5F0247EA2D513CC92E7CDCEFF2216
:1001E700EDD2E7CD33EC3392D524814006E4FFFE10
:1001F700FDFC22FCE4CFCECDCC24E0501174FF806F
:10020700EDC3CC13CCCD13CDCE13CECF13CF04700B
:07021700F030D5DE020268A1
:10021E00E9D2E7C933E833F892D5EDD2E7CD33EC26
:07022E0033FC5002B2D5229F
:10023500EC30E7100FBF000C0EBE00080DBD00042A
:100245000BEB6014A2D5EB13FCED92E7FD2274FFD6
:10025500FCFDFEFF22E480F8A2D574FF13FC7D802F
:03026500E480EF43
:10035C00020475E493A3F8E493A34003F68001F23E
:10036C0008DFF48029E493A3F85407240CC8C333A2
:10037C00C4540F4420C8834004F456800146F6DF71
:10038C00E4800B01020408102040809004B5E47E48
:10039C00019360BCA3FF543F30E509541FFEE49366
:1003AC00A360010ECF54C025E060A840B8E493A32D
:1003BC00FAE493A3F8E493A3C8C582C8CAC583CA58
:1003CC00F0A3C8C582C8CAC583CADFE9DEE780BE10
:0104BB000040
:0E026800C3E49FFFE49EFEE49DFDE49CFC22A7
:100276007401FF3395E0FEFDFC080808E6CF2FF673
:1002860018E6CE3EF618E6CD3DF618E6CC3CF6224C
:00000001FF
