:03000000020256A3
:0C025600787FE4F6D8FD75810C0201EC05
:05026200C2CAC6B50090
:1001EC007508801200D21201C71201C77BFF7A0278
:1001FC0079627D02E4FF1200037F647E0012022C00
:02020C0080E789
:10022C00D3EF9400EE9400400F7D267C82DCFEDD43
:08023C00FAEF1F70EB1E80E8D1
:010244002297
:10018300000014A44404942466AD342444A414004D
:1001930000080908080B0909FD09090908080908E5
:1001A3000002F21212D61A12F24048487F407C40F5
:1001B30000804F20100718204F801E204F408E9044
:0401C3000000000038
:0D020E0033FE12021BE50C2404FFE433FE56
:10021B00C2B2D2A5C2A6C2A700008F800000D2A78F
:01022B0022B0
:10024500C2B2D2A5D2A6C2A700008F800000D2A755
:010255002286
:1000D200C2B3E4FF0FBF64FCC2B2D2B37FE27E00C0
:1000E20012021BE4FF0FBF64FC7FA17E0012021B01
:1000F2007FC812021B7FA612021B7FA412021B7F63
:10010200A212021B7FF812021B7F0112021B7F81C7
:1001120012021B7F2312021B7F2512021B7F2F124A
:10012200021BE4FF0FBF64FC7F407E0012021B7FB4
:0A013200AF12021BE4FF0FBF64FCD4
:01013C0022A0
:1001C700E4FDED24B01202177F107E0012021B7FA0
:1001D7000412021BE4FCE4FFFE1202450CBC80F68D
:0401E7000DBD08DE64
:0101EB0022F1
:040003008F098D0ACA
:10000700E50AD3940740037F0022E509D394804093
:10001700037F002274B0250AF50AFF7E0012021B37
:1000270012013D70030200CFAF0A7E0012021BE5EA
:1000370009C4540FF50BE509540FF50CE50B241013
:10004700FFEE12020EE4FD12013DFFED75F022A452
:100057002483F582E43401F583E4936F705A9000AA
:1000670001120156FFED75F022A42484F582E434D1
:1000770001F583E4936F7040FCEC64107010E50A9F
:100087002401120217E50B2410FFE412020EED758E
:10009700F022A42485F582E43401F583E5822CF56A
:1000A70082E43583F583E493FF7E001202450CBC9E
:1000B70020C774102509F5090DED643270897402A3
:0A00C70029F9E43AFA0200277F014C
:0100D100220C
:10013D00BB010689828A83E0225002E722BBFE02C0
:09014D00E32289828A83E49322F3
:10015600BB010CE58229F582E5833AF583E022505E
:1001660006E92582F8E622BBFE06E92582F8E222A8
:0D017600E58229F582E5833AF583E49322C2
:00000001FF
