:020000000000fe
:020001000002fb
:020002000003f9
:020003000005f6
:020004000006f4
:020005000008f1
:020006000009ef
:02000700000bec
:02000800000de9
:02000900000ee7
:02000a000010e4
:02000b000011e2
:02000c000013df
:02000d000014dd
:02000e000016da
:02000f000018d7
:020010000019d5
:02001100001bd2
:02001200001cd0
:02001300001ecd
:02001400001fcb
:020015000021c8
:020016000022c6
:020017000024c3
:020018000026c0
:020019000027be
:02001a000029bb
:02001b00002ab9
:02001c00002cb6
:02001d00002db4
:02001e00002fb1
:02001f000031ae
:020020000032ac
:020021000034a9
:020022000035a7
:020023000037a4
:020024000038a2
:02002500003a9f
:02002600003b9d
:02002700003d9a
:02002800003f97
:02002900004095
:02002a00004292
:02002b00004390
:02002c0000458d
:02002d0000468b
:02002e00004888
:02002f00004986
:02003000004b83
:02003100004d80
:02003200004e7e
:0200330000507b
:02003400005179
:02003500005376
:02003600005474
:02003700005671
:0200380000576f
:0200390000596c
:02003a00005a6a
:02003b00005c67
:02003c00005e64
:02003d00005f62
:02003e0000615f
:02003f0000625d
:0200400000645a
:02004100006558
:02004200006755
:02004300006853
:02004400006a50
:02004500006b4e
:02004600006d4b
:02004700006e49
:02004800007046
:02004900007144
:02004a00007341
:02004b0000753e
:02004c0000763c
:02004d00007839
:02004e00007937
:02004f00007b34
:02005000007c32
:02005100007e2f
:02005200007f2d
:0200530000812a
:02005400008228
:02005500008425
:02005600008523
:02005700008720
:0200580000881e
:02005900008a1b
:02005a00008b19
:02005b00008d16
:02005c00008e14
:02005d00009011
:02005e0000910f
:02005f0000930c
:0200600000940a
:02006100009607
:02006200009705
:02006300009902
:02006400009a00
:02006500009cfd
:02006600009dfb
:02006700009ff8
:0200680000a0f6
:0200690000a2f3
:02006a0000a3f1
:02006b0000a5ee
:02006c0000a6ec
:02006d0000a8e9
:02006e0000a9e7
:02006f0000abe4
:0200700000ace2
:0200710000aedf
:0200720000afdd
:0200730000b1da
:0200740000b2d8
:0200750000b4d5
:0200760000b5d3
:0200770000b6d1
:0200780000b8ce
:0200790000b9cc
:02007a0000bbc9
:02007b0000bcc7
:02007c0000bec4
:02007d0000bfc2
:02007e0000c1bf
:02007f0000c2bd
:0200800000c4ba
:0200810000c5b8
:0200820000c6b6
:0200830000c8b3
:0200840000c9b1
:0200850000cbae
:0200860000ccac
:0200870000cea9
:0200880000cfa7
:0200890000d1a4
:02008a0000d2a2
:02008b0000d3a0
:02008c0000d59d
:02008d0000d69b
:02008e0000d898
:02008f0000d996
:0200900000da94
:0200910000dc91
:0200920000dd8f
:0200930000df8c
:0200940000e08a
:0200950000e287
:0200960000e385
:0200970000e483
:0200980000e680
:0200990000e77e
:02009a0000e97b
:02009b0000ea79
:02009c0000eb77
:02009d0000ed74
:02009e0000ee72
:02009f0000ef70
:0200a00000f16d
:0200a10000f26b
:0200a20000f468
:0200a30000f566
:0200a40000f664
:0200a50000f861
:0200a60000f95f
:0200a70000fb5c
:0200a80000fc5a
:0200a90000fd58
:0200aa0000ff55
:0200ab00010052
:0200ac00010150
:0200ad0001034d
:0200ae0001044b
:0200af00010549
:0200b000010746
:0200b100010844
:0200b200010942
:0200b300010b3f
:0200b400010c3d
:0200b500010d3b
:0200b600010f38
:0200b700011036
:0200b800011134
:0200b900011331
:0200ba0001142f
:0200bb0001152d
:0200bc0001172a
:0200bd00011828
:0200be00011926
:0200bf00011b23
:0200c000011c21
:0200c100011d1f
:0200c200011e1d
:0200c30001201a
:0200c400012118
:0200c500012216
:0200c600012413
:0200c700012511
:0200c80001260f
:0200c90001280c
:0200ca0001290a
:0200cb00012a08
:0200cc00012b06
:0200cd00012d03
:0200ce00012e01
:0200cf00012fff
:0200d0000130fd
:0200d1000132fa
:0200d2000133f8
:0200d3000134f6
:0200d4000135f4
:0200d5000137f1
:0200d6000138ef
:0200d7000139ed
:0200d800013aeb
:0200d900013ce8
:0200da00013de6
:0200db00013ee4
:0200dc00013fe2
:0200dd000141df
:0200de000142dd
:0200df000143db
:0200e0000144d9
:0200e1000145d7
:0200e2000147d4
:0200e3000148d2
:0200e4000149d0
:0200e500014ace
:0200e600014bcc
:0200e700014dc9
:0200e800014ec7
:0200e900014fc5
:0200ea000150c3
:0200eb000151c1
:0200ec000152bf
:0200ed000154bc
:0200ee000155ba
:0200ef000156b8
:0200f0000157b6
:0200f1000158b4
:0200f2000159b2
:0200f300015baf
:0200f400015cad
:0200f500015dab
:0200f600015ea9
:0200f700015fa7
:0200f8000160a5
:0200f9000161a3
:0200fa000163a0
:0200fb0001649e
:0200fc0001659c
:0200fd0001669a
:0200fe00016798
:0200ff00016896
:02010000016993
:02010100016a91
:02010200016c8e
:02010300016d8c
:02010400016e8a
:02010500016f88
:02010600017086
:02010700017184
:02010800017282
:02010900017380
:02010a0001747e
:02010b0001757c
:02010c0001767a
:02010d00017778
:02010e00017975
:02010f00017a73
:02011000017b71
:02011100017c6f
:02011200017d6d
:02011300017e6b
:02011400017f69
:02011500018067
:02011600018165
:02011700018263
:02011800018361
:0201190001845f
:02011a0001855d
:02011b0001865b
:02011c00018759
:02011d00018857
:02011e00018955
:02011f00018a53
:02012000018b51
:02012100018c4f
:02012200018d4d
:02012300018e4b
:02012400018f49
:02012500019047
:02012600019145
:02012700019243
:02012800019341
:0201290001943f
:02012a0001953d
:02012b0001963b
:02012c00019739
:02012d00019837
:02012e00019935
:02012f00019a33
:02013000019a32
:02013100019b30
:02013200019c2e
:02013300019d2c
:02013400019e2a
:02013500019f28
:0201360001a026
:0201370001a124
:0201380001a222
:0201390001a320
:02013a0001a41e
:02013b0001a41d
:02013c0001a51b
:02013d0001a619
:02013e0001a717
:02013f0001a815
:0201400001a913
:0201410001aa11
:0201420001ab0f
:0201430001ab0e
:0201440001ac0c
:0201450001ad0a
:0201460001ae08
:0201470001af06
:0201480001b004
:0201490001b102
:02014a0001b101
:02014b0001b2ff
:02014c0001b3fd
:02014d0001b4fb
:02014e0001b5f9
:02014f0001b5f8
:0201500001b6f6
:0201510001b7f4
:0201520001b8f2
:0201530001b9f0
:0201540001b9ef
:0201550001baed
:0201560001bbeb
:0201570001bce9
:0201580001bde7
:0201590001bde6
:02015a0001bee4
:02015b0001bfe2
:02015c0001c0e0
:02015d0001c0df
:02015e0001c1dd
:02015f0001c2db
:0201600001c3d9
:0201610001c3d8
:0201620001c4d6
:0201630001c5d4
:0201640001c6d2
:0201650001c6d1
:0201660001c7cf
:0201670001c8cd
:0201680001c8cc
:0201690001c9ca
:02016a0001cac8
:02016b0001cbc6
:02016c0001cbc5
:02016d0001ccc3
:02016e0001cdc1
:02016f0001cdc0
:0201700001cebe
:0201710001cfbc
:0201720001cfbb
:0201730001d0b9
:0201740001d1b7
:0201750001d1b6
:0201760001d2b4
:0201770001d3b2
:0201780001d3b1
:0201790001d4af
:02017a0001d4ae
:02017b0001d5ac
:02017c0001d6aa
:02017d0001d6a9
:02017e0001d7a7
:02017f0001d8a5
:0201800001d8a4
:0201810001d9a2
:0201820001d9a1
:0201830001da9f
:0201840001da9e
:0201850001db9c
:0201860001dc9a
:0201870001dc99
:0201880001dd97
:0201890001dd96
:02018a0001de94
:02018b0001de93
:02018c0001df91
:02018d0001e08f
:02018e0001e08e
:02018f0001e18c
:0201900001e18b
:0201910001e289
:0201920001e288
:0201930001e386
:0201940001e385
:0201950001e483
:0201960001e482
:0201970001e580
:0201980001e57f
:0201990001e67d
:02019a0001e67c
:02019b0001e77a
:02019c0001e779
:02019d0001e877
:02019e0001e876
:02019f0001e974
:0201a00001e973
:0201a10001e972
:0201a20001ea70
:0201a30001ea6f
:0201a40001eb6d
:0201a50001eb6c
:0201a60001ec6a
:0201a70001ec69
:0201a80001ec68
:0201a90001ed66
:0201aa0001ed65
:0201ab0001ee63
:0201ac0001ee62
:0201ad0001ef60
:0201ae0001ef5f
:0201af0001ef5e
:0201b00001f05c
:0201b10001f05b
:0201b20001f05a
:0201b30001f158
:0201b40001f157
:0201b50001f255
:0201b60001f254
:0201b70001f253
:0201b80001f351
:0201b90001f350
:0201ba0001f34f
:0201bb0001f44d
:0201bc0001f44c
:0201bd0001f44b
:0201be0001f549
:0201bf0001f548
:0201c00001f547
:0201c10001f546
:0201c20001f644
:0201c30001f643
:0201c40001f642
:0201c50001f740
:0201c60001f73f
:0201c70001f73e
:0201c80001f73d
:0201c90001f83b
:0201ca0001f83a
:0201cb0001f839
:0201cc0001f937
:0201cd0001f936
:0201ce0001f935
:0201cf0001f934
:0201d00001f933
:0201d10001fa31
:0201d20001fa30
:0201d30001fa2f
:0201d40001fa2e
:0201d50001fb2c
:0201d60001fb2b
:0201d70001fb2a
:0201d80001fb29
:0201d90001fb28
:0201da0001fc26
:0201db0001fc25
:0201dc0001fc24
:0201dd0001fc23
:0201de0001fc22
:0201df0001fc21
:0201e00001fd1f
:0201e10001fd1e
:0201e20001fd1d
:0201e30001fd1c
:0201e40001fd1b
:0201e50001fd1a
:0201e60001fd19
:0201e70001fd18
:0201e80001fe16
:0201e90001fe15
:0201ea0001fe14
:0201eb0001fe13
:0201ec0001fe12
:0201ed0001fe11
:0201ee0001fe10
:0201ef0001fe0f
:0201f00001fe0e
:0201f10001fe0d
:0201f20001ff0b
:0201f30001ff0a
:0201f40001ff09
:0201f50001ff08
:0201f60001ff07
:0201f70001ff06
:0201f80001ff05
:0201f90001ff04
:0201fa0001ff03
:0201fb0001ff02
:0201fc0001ff01
:0201fd0001ff00
:0201fe0001ffff
:0201ff0001fffe
:00000001FF
