:0200000001fffe
:0200010001fffd
:0200020001fffc
:0200030001fffb
:0200040001fffa
:0200050001fff9
:0200060001fff8
:0200070001fff7
:0200080001fef7
:0200090001fef6
:02000a0001fef5
:02000b0001fef4
:02000c0001fef3
:02000d0001fdf3
:02000e0001fdf2
:02000f0001fdf1
:0200100001fdf0
:0200110001fcf0
:0200120001fcef
:0200130001fcee
:0200140001fbee
:0200150001fbed
:0200160001faed
:0200170001faec
:0200180001f9ec
:0200190001f9eb
:02001a0001f9ea
:02001b0001f8ea
:02001c0001f7ea
:02001d0001f7e9
:02001e0001f6e9
:02001f0001f6e8
:0200200001f5e8
:0200210001f5e7
:0200220001f4e7
:0200230001f3e7
:0200240001f3e6
:0200250001f2e6
:0200260001f1e6
:0200270001f0e6
:0200280001f0e5
:0200290001efe5
:02002a0001eee5
:02002b0001ede5
:02002c0001ece5
:02002d0001ece4
:02002e0001ebe4
:02002f0001eae4
:0200300001e9e4
:0200310001e8e4
:0200320001e7e4
:0200330001e6e4
:0200340001e5e4
:0200350001e4e4
:0200360001e3e4
:0200370001e2e4
:0200380001e1e4
:0200390001e0e4
:02003a0001dfe4
:02003b0001dee4
:02003c0001dde4
:02003d0001dce4
:02003e0001dae5
:02003f0001d9e5
:0200400001d8e5
:0200410001d7e5
:0200420001d6e5
:0200430001d4e6
:0200440001d3e6
:0200450001d2e6
:0200460001d1e6
:0200470001cfe7
:0200480001cee7
:0200490001cde7
:02004a0001cbe8
:02004b0001cae8
:02004c0001c8e9
:02004d0001c7e9
:02004e0001c6e9
:02004f0001c4ea
:0200500001c3ea
:0200510001c1eb
:0200520001c0eb
:0200530001beec
:0200540001bdec
:0200550001bbed
:0200560001b9ee
:0200570001b8ee
:0200580001b6ef
:0200590001b5ef
:02005a0001b3f0
:02005b0001b1f1
:02005c0001b0f1
:02005d0001aef2
:02005e0001acf3
:02005f0001abf3
:0200600001a9f4
:0200610001a7f5
:0200620001a5f6
:0200630001a4f6
:0200640001a2f7
:0200650001a0f8
:02006600019ef9
:02006700019cfa
:02006800019afb
:020069000199fb
:02006a000197fc
:02006b000195fd
:02006c000193fe
:02006d000191ff
:02006e00018f00
:02006f00018d01
:02007000018b02
:02007100018903
:02007200018704
:02007300018505
:02007400018306
:02007500018107
:02007600017f08
:02007700017d09
:02007800017b0a
:0200790001790b
:02007a0001760d
:02007b0001740e
:02007c0001720f
:02007d00017010
:02007e00016e11
:02007f00016c12
:02008000016914
:02008100016715
:02008200016516
:02008300016317
:02008400016019
:02008500015e1a
:02008600015c1b
:0200870001591d
:0200880001571e
:0200890001551f
:02008a00015221
:02008b00015022
:02008c00014e23
:02008d00014b25
:02008e00014926
:02008f00014727
:02009000014429
:0200910001422a
:02009200013f2c
:02009300013d2d
:02009400013a2f
:02009500013830
:02009600013532
:02009700013333
:02009800013035
:02009900012e36
:02009a00012b38
:02009b00012939
:02009c0001263b
:02009d0001243c
:02009e0001213e
:02009f00011e40
:0200a000011c41
:0200a100011943
:0200a200011744
:0200a300011446
:0200a400011148
:0200a500010f49
:0200a600010c4b
:0200a70001094d
:0200a80001074e
:0200a900010450
:0200aa00010152
:0200ab0000ff54
:0200ac0000fc56
:0200ad0000f958
:0200ae0000f65a
:0200af0000f45b
:0200b00000f15d
:0200b10000ee5f
:0200b20000eb61
:0200b30000e962
:0200b40000e664
:0200b50000e366
:0200b60000e068
:0200b70000dd6a
:0200b80000da6c
:0200b90000d86d
:0200ba0000d56f
:0200bb0000d271
:0200bc0000cf73
:0200bd0000cc75
:0200be0000c977
:0200bf0000c679
:0200c00000c47a
:0200c10000c17c
:0200c20000be7e
:0200c30000bb80
:0200c40000b882
:0200c50000b584
:0200c60000b286
:0200c70000af88
:0200c80000ac8a
:0200c90000a98c
:0200ca0000a68e
:0200cb0000a390
:0200cc0000a092
:0200cd00009d94
:0200ce00009a96
:0200cf00009798
:0200d00000949a
:0200d10000919c
:0200d200008e9e
:0200d300008ba0
:0200d4000088a2
:0200d5000085a4
:0200d6000082a6
:0200d700007fa8
:0200d800007caa
:0200d9000079ac
:0200da000076ae
:0200db000073b0
:0200dc000070b2
:0200dd00006db4
:0200de00006ab6
:0200df000067b8
:0200e0000064ba
:0200e1000061bc
:0200e200005ebe
:0200e300005ac1
:0200e4000057c3
:0200e5000054c5
:0200e6000051c7
:0200e700004ec9
:0200e800004bcb
:0200e9000048cd
:0200ea000045cf
:0200eb000042d1
:0200ec00003fd3
:0200ed00003bd6
:0200ee000038d8
:0200ef000035da
:0200f0000032dc
:0200f100002fde
:0200f200002ce0
:0200f3000029e2
:0200f4000026e4
:0200f5000022e7
:0200f600001fe9
:0200f700001ceb
:0200f8000019ed
:0200f9000016ef
:0200fa000013f1
:0200fb000010f3
:0200fc00000df5
:0200fd000009f8
:0200fe000006fa
:0200ff000003fc
:020100000000fd
:0201010003fdfc
:0201020003fafe
:0201030003f700
:0201040003f303
:0201050003f005
:0201060003ed07
:0201070003ea09
:0201080003e70b
:0201090003e40d
:02010a0003e10f
:02010b0003de11
:02010c0003da14
:02010d0003d716
:02010e0003d418
:02010f0003d11a
:0201100003ce1c
:0201110003cb1e
:0201120003c820
:0201130003c522
:0201140003c125
:0201150003be27
:0201160003bb29
:0201170003b82b
:0201180003b52d
:0201190003b22f
:02011a0003af31
:02011b0003ac33
:02011c0003a935
:02011d0003a637
:02011e0003a23a
:02011f00039f3c
:02012000039c3e
:02012100039940
:02012200039642
:02012300039344
:02012400039046
:02012500038d48
:02012600038a4a
:0201270003874c
:0201280003844e
:02012900038150
:02012a00037e52
:02012b00037b54
:02012c00037856
:02012d00037558
:02012e0003725a
:02012f00036f5c
:02013000036c5e
:02013100036960
:02013200036662
:02013300036364
:02013400036066
:02013500035d68
:02013600035a6a
:0201370003576c
:0201380003546e
:02013900035170
:02013a00034e72
:02013b00034b74
:02013c00034876
:02013d00034578
:02013e0003427a
:02013f00033f7c
:02014000033c7e
:02014100033a7f
:02014200033781
:02014300033483
:02014400033185
:02014500032e87
:02014600032b89
:0201470003288b
:0201480003268c
:0201490003238e
:02014a00032090
:02014b00031d92
:02014c00031a94
:02014d00031796
:02014e00031597
:02014f00031299
:02015000030f9b
:02015100030c9d
:02015200030a9e
:020153000307a0
:020154000304a2
:020155000301a4
:0201560002ffa6
:0201570002fca8
:0201580002f9aa
:0201590002f7ab
:02015a0002f4ad
:02015b0002f1af
:02015c0002efb0
:02015d0002ecb2
:02015e0002e9b4
:02015f0002e7b5
:0201600002e4b7
:0201610002e2b8
:0201620002dfba
:0201630002dcbc
:0201640002dabd
:0201650002d7bf
:0201660002d5c0
:0201670002d2c2
:0201680002d0c3
:0201690002cdc5
:02016a0002cbc6
:02016b0002c8c8
:02016c0002c6c9
:02016d0002c3cb
:02016e0002c1cc
:02016f0002bece
:0201700002bccf
:0201710002b9d1
:0201720002b7d2
:0201730002b5d3
:0201740002b2d5
:0201750002b0d6
:0201760002aed7
:0201770002abd9
:0201780002a9da
:0201790002a7db
:02017a0002a4dd
:02017b0002a2de
:02017c0002a0df
:02017d00029de1
:02017e00029be2
:02017f000299e3
:020180000297e4
:020181000294e6
:020182000292e7
:020183000290e8
:02018400028ee9
:02018500028cea
:02018600028aeb
:020187000287ed
:020188000285ee
:020189000283ef
:02018a000281f0
:02018b00027ff1
:02018c00027df2
:02018d00027bf3
:02018e000279f4
:02018f000277f5
:020190000275f6
:020191000273f7
:020192000271f8
:02019300026ff9
:02019400026dfa
:02019500026bfb
:020196000269fc
:020197000267fd
:020198000266fd
:020199000264fe
:02019a000262ff
:02019b00026000
:02019c00025e01
:02019d00025c02
:02019e00025b02
:02019f00025903
:0201a000025704
:0201a100025505
:0201a200025405
:0201a300025206
:0201a400025007
:0201a500024f07
:0201a600024d08
:0201a700024b09
:0201a800024a09
:0201a90002480a
:0201aa0002470a
:0201ab0002450b
:0201ac0002430c
:0201ad0002420c
:0201ae0002400d
:0201af00023f0d
:0201b000023d0e
:0201b100023c0e
:0201b200023a0f
:0201b30002390f
:0201b40002380f
:0201b500023610
:0201b600023510
:0201b700023311
:0201b800023211
:0201b900023111
:0201ba00022f12
:0201bb00022e12
:0201bc00022d12
:0201bd00022c12
:0201be00022a13
:0201bf00022913
:0201c000022813
:0201c100022713
:0201c200022613
:0201c300022414
:0201c400022314
:0201c500022214
:0201c600022114
:0201c700022014
:0201c800021f14
:0201c900021e14
:0201ca00021d14
:0201cb00021c14
:0201cc00021b14
:0201cd00021a14
:0201ce00021914
:0201cf00021814
:0201d000021714
:0201d100021614
:0201d200021514
:0201d300021414
:0201d400021413
:0201d500021313
:0201d600021213
:0201d700021113
:0201d800021013
:0201d900021012
:0201da00020f12
:0201db00020e12
:0201dc00020d12
:0201dd00020d11
:0201de00020c11
:0201df00020b11
:0201e000020b10
:0201e100020a10
:0201e200020a0f
:0201e30002090f
:0201e40002090e
:0201e50002080e
:0201e60002070e
:0201e70002070d
:0201e80002070c
:0201e90002060c
:0201ea0002060b
:0201eb0002050b
:0201ec0002050a
:0201ed0002040a
:0201ee00020409
:0201ef00020408
:0201f000020308
:0201f100020307
:0201f200020306
:0201f300020305
:0201f400020205
:0201f500020204
:0201f600020203
:0201f700020202
:0201f800020201
:0201f900020101
:0201fa00020100
:0201fb000201ff
:0201fc000201fe
:0201fd000201fd
:0201fe000201fc
:0201ff000201fb
:00000001FF
