:020000000000fe
:020001000005f8
:020002000009f3
:02000300000eed
:020004000013e7
:020005000018e1
:02000600001cdc
:020007000021d6
:020008000026d0
:02000900002acb
:02000a00002fc5
:02000b000034bf
:02000c000038ba
:02000d00003db4
:02000e000042ae
:02000f000046a9
:02001000004ba3
:0200110000509d
:02001200005498
:02001300005992
:02001400005e8c
:02001500006287
:02001600006781
:02001700006b7c
:02001800007076
:02001900007570
:02001a0000796b
:02001b00007e65
:02001c00008260
:02001d0000875a
:02001e00008b55
:02001f0000904f
:0200200000944a
:02002100009944
:02002200009d3f
:0200230000a239
:0200240000a634
:0200250000ab2e
:0200260000af29
:0200270000b423
:0200280000b81e
:0200290000bc19
:02002a0000c113
:02002b0000c50e
:02002c0000c909
:02002d0000ce03
:02002e0000d2fe
:02002f0000d6f9
:0200300000daf4
:0200310000dfee
:0200320000e3e9
:0200330000e7e4
:0200340000ebdf
:0200350000efda
:0200360000f4d4
:0200370000f8cf
:0200380000fcca
:020039000100c4
:02003a000104bf
:02003b000108ba
:02003c00010cb5
:02003d000110b0
:02003e000114ab
:02003f000118a6
:02004000011ca1
:0200410001209c
:02004200012497
:02004300012892
:02004400012b8e
:02004500012f89
:02004600013384
:0200470001377f
:02004800013a7b
:02004900013e76
:02004a00014271
:02004b0001456d
:02004c00014968
:02004d00014d63
:02004e0001505f
:02004f0001545a
:02005000015756
:02005100015b51
:02005200015e4d
:02005300016149
:02005400016544
:02005500016840
:02005600016c3b
:02005700016f37
:02005800017233
:0200590001752f
:02005a0001792a
:02005b00017c26
:02005c00017f22
:02005d0001821e
:02005e0001851a
:02005f00018816
:02006000018b12
:02006100018e0e
:0200620001910a
:02006300019406
:02006400019702
:02006500019afe
:02006600019cfb
:02006700019ff7
:0200680001a2f3
:0200690001a4f0
:02006a0001a7ec
:02006b0001aae8
:02006c0001ace5
:02006d0001afe1
:02006e0001b1de
:02006f0001b4da
:0200700001b6d7
:0200710001b9d3
:0200720001bbd0
:0200730001bdcd
:0200740001c0c9
:0200750001c2c6
:0200760001c4c3
:0200770001c6c0
:0200780001c8bd
:0200790001cbb9
:02007a0001cdb6
:02007b0001cfb3
:02007c0001d1b0
:02007d0001d3ad
:02007e0001d4ab
:02007f0001d6a8
:0200800001d8a5
:0200810001daa2
:0200820001dc9f
:0200830001dd9d
:0200840001df9a
:0200850001e197
:0200860001e295
:0200870001e492
:0200880001e590
:0200890001e78d
:02008a0001e88b
:02008b0001e989
:02008c0001eb86
:02008d0001ec84
:02008e0001ed82
:02008f0001ef7f
:0200900001f07d
:0200910001f17b
:0200920001f279
:0200930001f377
:0200940001f475
:0200950001f573
:0200960001f671
:0200970001f76f
:0200980001f76e
:0200990001f86c
:02009a0001f96a
:02009b0001fa68
:02009c0001fa67
:02009d0001fb65
:02009e0001fc63
:02009f0001fc62
:0200a00001fd60
:0200a10001fd5f
:0200a20001fd5e
:0200a30001fe5c
:0200a40001fe5b
:0200a50001fe5a
:0200a60001ff58
:0200a70001ff57
:0200a80001ff56
:0200a90001ff55
:0200aa0001ff54
:0200ab0001ff53
:0200ac0001ff52
:0200ad0001ff51
:0200ae0001ff50
:0200af0001ff4f
:0200b00001fe4f
:0200b10001fe4e
:0200b20001fe4d
:0200b30001fd4d
:0200b40001fd4c
:0200b50001fd4b
:0200b60001fc4b
:0200b70001fc4a
:0200b80001fb4a
:0200b90001fb49
:0200ba0001fa49
:0200bb0001f949
:0200bc0001f948
:0200bd0001f848
:0200be0001f748
:0200bf0001f648
:0200c00001f548
:0200c10001f448
:0200c20001f348
:0200c30001f248
:0200c40001f148
:0200c50001f048
:0200c60001ef48
:0200c70001ee48
:0200c80001ec49
:0200c90001eb49
:0200ca0001ea49
:0200cb0001e949
:0200cc0001e74a
:0200cd0001e64a
:0200ce0001e44b
:0200cf0001e34b
:0200d00001e14c
:0200d10001e04c
:0200d20001de4d
:0200d30001dc4e
:0200d40001da4f
:0200d50001d94f
:0200d60001d750
:0200d70001d551
:0200d80001d352
:0200d90001d153
:0200da0001cf54
:0200db0001cd55
:0200dc0001cb56
:0200dd0001c957
:0200de0001c758
:0200df0001c559
:0200e00001c35a
:0200e10001c05c
:0200e20001be5d
:0200e30001bc5e
:0200e40001b960
:0200e50001b761
:0200e60001b562
:0200e70001b264
:0200e80001b065
:0200e90001ad67
:0200ea0001ab68
:0200eb0001a86a
:0200ec0001a56c
:0200ed0001a36d
:0200ee0001a06f
:0200ef00019d71
:0200f000019a73
:0200f100019874
:0200f200019576
:0200f300019278
:0200f400018f7a
:0200f500018c7c
:0200f60001897e
:0200f700018680
:0200f800018382
:0200f900018084
:0200fa00017d86
:0200fb00017a88
:0200fc0001768b
:0200fd0001738d
:0200fe0001708f
:0200ff00016d91
:02010000016993
:02010100016695
:02010200016397
:02010300015f9a
:02010400015c9c
:0201050001589f
:020106000155a1
:020107000151a4
:02010800014ea6
:02010900014aa9
:02010a000147ab
:02010b000143ae
:02010c00013fb1
:02010d00013cb3
:02010e000138b6
:02010f000134b9
:020110000130bc
:02011100012dbe
:020112000129c1
:020113000125c4
:020114000121c7
:02011500011dca
:020116000119cd
:020117000115d0
:020118000111d3
:02011900010dd6
:02011a000109d9
:02011b000105dc
:02011c000101df
:02011d0000fde3
:02011e0000f9e6
:02011f0000f5e9
:0201200000f1ec
:0201210000edef
:0201220000e9f2
:0201230000e4f6
:0201240000e0f9
:0201250000dcfc
:0201260000d8ff
:0201270000d303
:0201280000cf06
:0201290000cb09
:02012a0000c60d
:02012b0000c210
:02012c0000be13
:02012d0000b917
:02012e0000b51a
:02012f0000b11d
:0201300000ac21
:0201310000a824
:0201320000a328
:02013300009f2b
:02013400009a2f
:02013500009632
:02013600009136
:02013700008d39
:0201380000883d
:02013900008440
:02013a00007f44
:02013b00007b47
:02013c0000764b
:02013d0000714f
:02013e00006d52
:02013f00006856
:02014000006459
:02014100005f5d
:02014200005a61
:02014300005664
:02014400005168
:02014500004d6b
:0201460000486f
:02014700004373
:02014800003f76
:02014900003a7a
:02014a0000357e
:02014b00003181
:02014c00002c85
:02014d00002789
:02014e0000228d
:02014f00001e90
:02015000001994
:02015100001498
:0201520000109b
:02015300000b9f
:020154000006a3
:020155000002a6
:0201560003fda7
:0201570003f8ab
:0201580003f3af
:0201590003efb2
:02015a0003eab6
:02015b0003e5ba
:02015c0003e1bd
:02015d0003dcc1
:02015e0003d7c5
:02015f0003d3c8
:0201600003cecc
:0201610003c9d0
:0201620003c5d3
:0201630003c0d7
:0201640003bbdb
:0201650003b7de
:0201660003b2e2
:0201670003ade6
:0201680003a9e9
:0201690003a4ed
:02016a00039ff1
:02016b00039bf4
:02016c000396f8
:02016d000392fb
:02016e00038dff
:02016f00038803
:02017000038406
:02017100037f0a
:02017200037b0d
:02017300037611
:02017400037214
:02017500036d18
:0201760003691b
:0201770003641f
:02017800036022
:02017900035b26
:02017a00035729
:02017b0003522d
:02017c00034e30
:02017d00034a33
:02017e00034537
:02017f0003413a
:02018000033c3e
:02018100033841
:02018200033444
:02018300032f48
:02018400032b4b
:0201850003274e
:02018600032351
:02018700031e55
:02018800031a58
:0201890003165b
:02018a0003125e
:02018b00030e61
:02018c00030a64
:02018d00030568
:02018e0003016b
:02018f0002fd6f
:0201900002f972
:0201910002f575
:0201920002f178
:0201930002ed7b
:0201940002e97e
:0201950002e581
:0201960002e283
:0201970002de86
:0201980002da89
:0201990002d68c
:02019a0002d28f
:02019b0002ce92
:02019c0002cb94
:02019d0002c797
:02019e0002c39a
:02019f0002bf9d
:0201a00002bc9f
:0201a10002b8a2
:0201a20002b5a4
:0201a30002b1a7
:0201a40002aea9
:0201a50002aaac
:0201a60002a7ae
:0201a70002a3b1
:0201a80002a0b3
:0201a900029cb6
:0201aa000299b8
:0201ab000296ba
:0201ac000292bd
:0201ad00028fbf
:0201ae00028cc1
:0201af000289c3
:0201b0000285c6
:0201b1000282c8
:0201b200027fca
:0201b300027ccc
:0201b4000279ce
:0201b5000276d0
:0201b6000273d2
:0201b7000270d4
:0201b800026dd6
:0201b900026ad8
:0201ba000267da
:0201bb000265db
:0201bc000262dd
:0201bd00025fdf
:0201be00025ce1
:0201bf00025ae2
:0201c0000257e4
:0201c1000255e5
:0201c2000252e7
:0201c300024fe9
:0201c400024dea
:0201c500024beb
:0201c6000248ed
:0201c7000246ee
:0201c8000243f0
:0201c9000241f1
:0201ca00023ff2
:0201cb00023df3
:0201cc00023af5
:0201cd000238f6
:0201ce000236f7
:0201cf000234f8
:0201d0000232f9
:0201d1000230fa
:0201d200022efb
:0201d300022cfc
:0201d400022afd
:0201d5000228fe
:0201d6000227fe
:0201d7000225ff
:0201d800022300
:0201d900022200
:0201da00022001
:0201db00021e02
:0201dc00021d02
:0201dd00021b03
:0201de00021a03
:0201df00021804
:0201e000021704
:0201e100021604
:0201e200021405
:0201e300021305
:0201e400021205
:0201e500021105
:0201e600021005
:0201e700020e06
:0201e800020d06
:0201e900020c06
:0201ea00020b06
:0201eb00020b05
:0201ec00020a05
:0201ed00020905
:0201ee00020805
:0201ef00020705
:0201f000020704
:0201f100020604
:0201f200020504
:0201f300020503
:0201f400020403
:0201f500020402
:0201f600020302
:0201f700020301
:0201f800020201
:0201f900020200
:0201fa000202ff
:0201fb000202fe
:0201fc000201fe
:0201fd000201fd
:0201fe000201fc
:0201ff000201fb
:00000001FF
