:1005F00012066F755C40120003EFF46013EF146095
:100600000904700C7440255CF55C74C0255CF55CD5
:10061000AF5CE4FCFDFE750C0F750DA01205B0C2B9
:07062000C3C2C1D2C080CFAC
:100003007FFF7590FEE59054F0FEBEE00FBEE00C5E
:100013007590FEE59054F0FEE4FF80F1BED00FBE74
:10002300D00C7590FEE59054F0FE7F0480F1BEB0D5
:100033000FBEB00C7590FEE59054F0FE7F0880F182
:10004300BE700FBE700C7590FEE59054F0FE7F0CF1
:1000530080F17590FDE59054F0FEBEE00FBEE00C1C
:100063007590FDE59054F0FE7F0180F1BED00FBE88
:10007300D00C7590FDE59054F0FE7F0580F1BEB085
:100083000FBEB00C7590FDE59054F0FE7F0980F132
:10009300BE700FBE700C7590FDE59054F0FE7F0DA1
:1000A30080F17590FBE59054F0FEBEE00FBEE00CCE
:1000B3007590FBE59054F0FE7F0280F1BED00FBE39
:1000C300D00C7590FBE59054F0FE7F0680F1BEB036
:1000D3000FBEB00C7590FBE59054F0FE7F0A80F1E3
:1000E300BE700FBE700C7590FBE59054F0FE7F0E52
:1000F30080F17590F7E59054F0FEBEE00FBEE00C82
:100103007590F7E59054F0FE7F0380F1BED00FBEEB
:10011300D00C7590F7E59054F0FE7F0780F1BEB0E8
:100123000FBEB00C7590F7E59054F0FE7F0B80F195
:10013300BE700FBE700C7590F7E59054F0FE7F0F04
:0201430080F149
:010145002297
:0606D30004460023CA9951
:10062700D2B5D2B4C2B6D2B7C2B77D107F1D1206FB
:040637003B7D060FF2
:10063B00E5A054C0FEEF543F4EF5A08D80C2B5D25D
:02064B00B522D6
:10066F00120627E4FD0F12063B7D600F12063BD2E8
:04067F00B6C2B62227
:080146008F128E118D108C0F39
:10014E0085491A8548198547188546178F1B7808E3
:10015E001205028F1CAF12AE11AD10AC0F7810123B
:10016E0005028F1DAF12AE11AD10AC0F781812052F
:10017E00028F1EAF1BE4FCFDFEAB1AAA19A918A82C
:10018E00171204B38F168E158D148C138F407808AA
:10019E001205028F168E158D148C13AF1CE4FCFD08
:1001AE00FEAB1AAA19A918A8171204B3E5162FF553
:1001BE0016E5153EF515E5143DF514E5133CF5135E
:1001CE00851641AF16AE15AD14FC78081205028FD8
:1001DE00168E158D148C13AF1DE4FCFDFEAB1AAA02
:1001EE0019A918A8171204B3E5162FF516E5153E32
:1001FE00F515E5143DF514E5133CF513851642AFE0
:10020E0016AE15AD14FC78081205028F168E158DDC
:10021E00148C13AF1EE4FCFDFEAB1AAA19A918A884
:10022E00171204B3E5162FF516E5153EF515E51470
:10023E003DF514E5133CF513851643AF16AE15AD1B
:10024E0014FC78081205028F168E158D148C138FE0
:08025E004478081205028F45E7
:010266002275
:1005B000750E041201467C06ECD394004010AF0E79
:1005C000050E1C74402CF8E6FD12063B80EAE50C93
:1005D000FD7F2112063BE50DFD0F12063BE50CFDEC
:0F05E0000F12063BE50DFD0F12063BD2B6C2B659
:0105EF0022E9
:100683001206277D020F12063B7D600F12063BD236
:04069300B6C2B62213
:08043D008F378E368D358C34AB
:10044500753E0F753FA0753C04753D0AAC3412012D
:10045500467C06ECD394004010AF3C053C1C744030
:100465002CF8E6FD12063B80EAAF3BAE3AAD39AC5F
:10047500381201467C06ECD394004010AF3D053D93
:100485001C74402CF8E6FD12063B80EAE53EFD7F34
:100495002112063BE53FFD0F12063BE53EFD0F121F
:0D04A500063BE53FFD0F12063BD2B6C2B686
:0104B2002227
:100697001206277D080F12063B7D600F12063BD21C
:0406A700B6C2B622FF
:0803C1008E4A8F4BAB05AA0424
:1003C900E4754F60754EEAF54DF54C75500F755152
:1003D900A0755204E54AFDE4FF12063BE54BFD0F0B
:1003E90012063BAD020F12063BEBFD0F12063BAFA7
:1003F9004FAE4EAD4DAC4C1201467C06ECD3940089
:100409004010AF5205521C74402CF8E6FD12063B11
:1004190080EAE550FD7F2112063BE551FD0F1206EA
:100429003BE550FD0F12063BE551FD0F12063BD28D
:03043900B6C2B692
:01043C00229D
:1006AB00120627E4FD0F12063B7D700F12063BD29C
:0406BB00B6C2B622EB
:020515008F58FD
:100517007F607EEA7D007C0075590F755AA0755B78
:10052700041201467C06ECD394004010AF5B055BD8
:100537001C74402CF8E6FD12063B80EAE559FD7F66
:100547002112063BE55AFD0F12063BE559FD0F1236
:10055700063BE55AFD0F12063BAD580F12063BD27C
:03056700B6C2B663
:01056A00226E
:10056B00E47556607555EAF554F553755704120644
:10057B0027E4FD0F12063B7D600F12063BAF56AE14
:10058B0055AD54AC531201467C06ECD3940040108D
:10059B00AF5705571C74402CF8E6FD12063B80EA5A
:0405AB00D2B6C2B64C
:0105AF002229
:10064D00AB07AA06AD027F2112063BEBFD0F12068A
:10065D003BAD020F12063BEBFD0F12063BD2B6C2AD
:02066D00B622B3
:1006BF001206277D240F12063B7D600F12063BD2D8
:0406CF00B6C2B622D7
:080267008F228E218D208C1FD7
:10026F0075320F7533A0752F0475300A753110ACC8
:10027F001F1201467C06ECD394004010AF2F052FC0
:10028F001C74402CF8E6FD12063B80EAAF26AE2523
:10029F00AD24AC231201467C06ECD394004010AF82
:1002AF003005301C74402CF8E6FD12063B80EAAF97
:1002BF002AAE29AD28AC271201467C06ECD3940058
:1002CF004010AF3105311C74402CF8E6FD12063B8F
:1002DF0080EAAF2EAE2DAD2CAC2B7810120502EFAD
:1002EF00540FFFAD077F1A12063BAF2EAE2DAD2C6C
:1002FF00AC2B7808120502AD077F1B12063BAD2E03
:10030F000F12063BE532FD7F2112063BE533FD0F51
:10031F0012063BE532FD0F12063BE533FD0F1206C9
:05032F003BD2B6C2B68E
:0103340022A6
:03000000020335C3
:0C033500787FE4F6D8FD75815C02037C43
:1004B300E88FF0A4CC8BF0A42CFCE98EF0A42CFCE8
:1004C3008AF0EDA42CFCEA8EF0A4CDA8F08BF0A466
:1004D3002DCC3825F0FDE98FF0A42CCD35F0FCEBC5
:1004E3008EF0A4FEA9F0EB8FF0A4CFC5F02ECD398A
:0F04F300FEE43CFCEAA42DCE35F0FDE43CFC22F7
:10050200E8600FECC313FCED13FDEE13FEEF13FFD7
:03051200D8F122FB
:100341000205F0E493A3F8E493A34003F68001F2DD
:1003510008DFF48029E493A3F85407240CC8C333BD
:10036100C4540F4420C8834004F456800146F6DF8C
:10037100E4800B01020408102040809006D3E47E43
:10038100019360BCA3FF543F30E509541FFEE49381
:10039100A360010ECF54C025E060A840B8E493A348
:1003A100FAE493A3F8E493A3C8C582C8CAC583CA73
:1003B100F0A3C8C582C8CAC583CADFE9DEE780BE2B
:0106D9000020
:00000001FF
