:1015AA00121A5D12199612162412186C120A8D8FCD
:1015BA0021E521F460F6E521B4100050589015CECB
:1015CA00F82828730215FE0215FE0215FE0215FE02
:1015DA000215FE0215FE0215FE0215FE0215FE0296
:1015EA0015FE02160302160802160D02161202163C
:1015FA001702161C12195E801C120DE38017120CBA
:10160A00F18012120EC1800D1211318008120F9250
:0A161A0080031211FD7521FF80927C
:100A8D007FFF7590FEE59054F0FEBEE00FBEE00CCA
:100A9D007590FEE59054F0FEE4FF80F1BED00FBEE0
:100AAD00D00C7590FEE59054F0FE7F0480F1BEB041
:100ABD000FBEB00C7590FEE59054F0FE7F0880F1EE
:100ACD00BE700FBE700C7590FEE59054F0FE7F0C5D
:100ADD0080F17590FDE59054F0FEBEE00FBEE00C88
:100AED007590FDE59054F0FE7F0180F1BED00FBEF4
:100AFD00D00C7590FDE59054F0FE7F0580F1BEB0F1
:100B0D000FBEB00C7590FDE59054F0FE7F0980F19D
:100B1D00BE700FBE700C7590FDE59054F0FE7F0D0C
:100B2D0080F17590FBE59054F0FEBEE00FBEE00C39
:100B3D007590FBE59054F0FE7F0280F1BED00FBEA4
:100B4D00D00C7590FBE59054F0FE7F0680F1BEB0A1
:100B5D000FBEB00C7590FBE59054F0FE7F0A80F14E
:100B6D00BE700FBE700C7590FBE59054F0FE7F0EBD
:100B7D0080F17590F7E59054F0FEBEE00FBEE00CED
:100B8D007590F7E59054F0FE7F0380F1BED00FBE57
:100B9D00D00C7590F7E59054F0FE7F0780F1BEB054
:100BAD000FBEB00C7590F7E59054F0FE7F0B80F101
:100BBD00BE700FBE700C7590F7E59054F0FE7F0F70
:020BCD0080F1B5
:010BCF002203
:101996007F647E00121AD17D30E4FF1214D97D01D6
:1019A600E4FF1214D97F647E00121AD17D06E4FF8B
:0A19B6001214D97D0CE4FF0214D9CD
:0817DC008E378F388C398D3AED
:1017E4007D30E4FF1214D9E537702CE5381460110C
:1017F40014601614601B2403701DE4F53BF53C8053
:1018040016753B00753C10800E753B00753C0880D6
:1018140006753B00753C18E53C2480253AFDE4FF41
:031824000214D9D2
:0418EE008E368F376C
:1018F2007D30E4FF1214D9E4F538F539E53725399E
:10190200F582E5363538F583E493FD60167F0112E2
:1019120014D90539E53970020538C39410E53894B5
:031922000040D9A9
:01192500229F
:041926008E248F2557
:10192A007D30E4FF1214D9E4F526F527E5252527AD
:10193A00F582E5243526F583E493FD60167F0112CE
:10194A0014D90527E52770020526C39402E52694D3
:03195A000040D971
:01195D002267
:101AC1008F357D30E4FF1214D9AD357F010214D971
:0412C5008E228F23C3
:1012C900E4F525E4F5247D34E4FF1214D9E5252459
:1012D90080FDE4FF1214D9E5242480FDE4FF1214F3
:1012E900D97D30E4FF1214D9E52475F002A4FDACD0
:1012F900F0E52575F010A42DFFE5F03C1214C91294
:1013090014AF0524E524C3940840BB0525E525C38E
:10131900942040AF752520E4F5247D34E4FF1214B0
:10132900D9E5252460FDE4FF1214D9E5242488FDBC
:10133900E4FF1214D97D30E4FF1214D9E52475F0C5
:1013490002A4FDACF0E52575F010A42DFFE5F03CF5
:101359001214C91214AF0524E524C3940840BB052F
:0F13690025E525C3944040AF7D36E4FF0214D93B
:041378008F228D2310
:10137C00752780E4F526E4F525E4F5247D34E4FFB7
:10138C001214D9E52525E02480FDE4FF1214D9E5DB
:10139C00272524FDE4FF1214D97D30E4FF1214D963
:1013AC00AD227F011214D9AD227F011214D905246C
:1013BC00E524C3940840C5E4F5247D34E4FF1214FD
:1013CC00D9E52525E02481FDE4FF1214D9E5272574
:1013DC0024FDE4FF1214D97D30E4FF1214D9AD239F
:1013EC007F011214D9AD237F011214D90524E524F1
:1013FC00C3940840C50525E525C39410500302137A
:10140C00857527880526E526C394025003021382AE
:07141C007D36E4FF0214D944
:101A48007D30E4FF1214D97D01E4FF1214D97FB46C
:051A58007E00021AD11E
:1019E600E4FDFC1217DCE4F535F5367D207F0112A7
:1019F60014D90536E53670020535C39410E53594DD
:031A06000040E8B5
:011A090022BA
:0B1AD100EF1FAC0670011E4C70F622E7
:1014AF00E52475F002A4FDACF0E52575F010A42D30
:1014BF00FFE5F03CCF2401CF3400FEE5232FF5826A
:0A14CF00E5223EF583E493FD7F0162
:0214D900AB075F
:1014DB007F327E00121AD1D280C282D281E4FFD237
:1014EB0082C2820FBF05F8C281D282C282EB600436
:1014FB00D2818002C281D282C282C281D282C28256
:10150B00E4FEE4FFED25E0FD9281D282C2820FBFA3
:10151B0004F2C281E4FFD282C2820FBF04F80EBE76
:02152B0002E0DC
:01152D00229B
:10000300BBF9D3DA44445320C4DABACBB5C400B63F
:10001300E0B9A6C4DCB8DFC6B5CAB5D1E9D2C7001A
:10002300D7F7D5DF3A20CDF5B2A8CCCE00D1A7D4EF
:10003300BAA3BAB9E2B5E7D1A7D4BA002020C7EB77
:10004300D1A1D4F1B9A6C4DCBCFC00202053494E95
:10005300202020202046534B0020205246534B2083
:100063002020204250534B0020204F534B20202070
:100073002020414D002020C4FAB5C4CAE4C8EBB423
:10008300EDCEF3002020C7EBC4FAD6D8D0C2CAE421
:10009300C8EB00C4FAD1A1D4F1C1CB46534B20B96C
:1000A300A6C4DC00C7EBC8B7B6A8BBF2CDCBB3F68A
:1000B30000D4DABDF8D0D046534B20B2D9D7F700DD
:1000C300C7EBB0B4C8CED2E2BCFCB7B5BBD800C452
:1000D300FAD1A1D4F1C1CBCDCBB3F600C4FAD1A1EF
:1000E300D4F1C1CB5246534BB9A6C4DC00D4DABD1C
:1000F300F8D0D05246534BB2D9D7F700C4FAD1A1A6
:10010300D4F1C1CB4250534BB9A6C4DC00D4DABD01
:10011300F8D0D04250534BB2D9D7F700C4FAD1A18B
:10012300D4F1C1CB4F534B20B9A6C4DC00D4DABD04
:10013300F8D0D04F534B20B2D9D7F700C4FAD1A18E
:10014300D4F1C1CB414DB9A6C4DC00D4DABDF8D09B
:10015300D0414DB2D9D7F700C4FAD1A1D4F1C1CB64
:1001630053494E20B9A6C4DC00C7EBCAE4C8EB0070
:10017300CFD2B2A8C6B5C2CA002020C6B5C2CACA69
:10018300E4C8EBB7B6CEA73A2000202020202030C9
:100193007E35304D485A2020202000C4FACAE4C8D6
:1001A300EBB5C4C6B5C2CACEAA3A00C4FAB5C4CA2E
:1001B300E4C8EBD2E7B3F600C7EBC4FAD6D8D0C293
:1001C300CAE4C8EB00C4FAD1A1D4F1C1CBC7E5C1DD
:1001D300E300C4FAD2D1CAE4C8EBC6B5C2CA00C7A9
:1001E300EBC8B7B6A8BBF2C7E5C1E300D2D1BEAD39
:1001F300B2FAC9FAC6B5C2CACEAA00B5C4B2A8D06B
:10020300CE00C4FAB5C4CAE4C8EBB4EDCEF3000023
:1002130000000000000000000000000000000000DB
:1002230000000000000000000000000000000000CB
:1002330000000000000000000000000000000000BB
:1002430000000000000000000000000000000000AB
:10025300000000000000000000000000000000009B
:1002630000000000010080000FFF000000000000FC
:100273000000000C430180007FFFF000000000003D
:1002830000000019FF070007FFFFFE000000000049
:100293000000013FFC1E001FFFFFFF800000000065
:1002A300000001BFFFFC007FFC007FC000000000D6
:1002B300000001FFFFF000FFC0000FE0000000009E
:1002C300000001FFFFE003FFFFFC01F0000000005E
:1002D300000001DFFFC007FFFFFF80F00000000008
:1002E300000003FFFF000FFFFFFFE03800000000E6
:1002F300000007FFF8001FFFF003F83800000000BC
:10030300000007FFE0003FFFFFC07C180000000073
:100313000000047FF0003FFFFFF81E08000000000C
:10032300000001FFF8007FFFFFFE0F080000000040
:1003330000000FFFFC00FFFFFFFF87080000000025
:1003430000001FFFFE00FFFFFFFF83880000000087
:1003530000003FFFFE01FFFFFFFFC3880000000016
:1003630000007FFFFE01FFFFFFFFE18800000000A8
:100373000000FFFFFE03FFFFFFFFE1880000000016
:100383000001FFFFFE03FFFFFFFFF18800000000F5
:100393000001FFFFFE03FFFFFFFFF3080000000063
:1003A3000001FFFFFF07FFFFFFFFF2100000000047
:1003B3000001FFFFFF8FFFFFFFFFF02000000000A1
:1003C3000001FFFFFFFFFFFFFFFFF0000000000041
:1003D3000001FFFFFFFFFFFFFFFF700000000000B1
:1003E3000001FFFFFFFFFFFFFEFF700000000000A2
:1003F3000001FFFFFFFFFFFFFEFF70000000000092
:100403000000FFFFFFFFFF7FFF7F200000000000D1
:100413000000FFFFFFFFFFBFFF7F20000000000081
:1004230000007FFFFFFFFFDFFF7E200000000000D2
:1004330000003FFFFFFFFFDFFF3E40000000000022
:1004430000001FFFFFFFFFCFFF3C40000000000044
:1004530000000FFFFFFFFFCFFE3840000000000049
:10046300000007FFFFFFFF8FFE3840000000000081
:10047300000001FFFFFFFF8FFE304000000000007F
:10048300000000FFFFFFFF1F7C2040000000000072
:100493000000007FFFFFFE1E780040000000000008
:1004A3000000003FFFFFFE1EF00000000000000000
:1004B3000000001FFFFFDA3CE00000000000000026
:1004C30000000007FFFFF230800000000000000082
:1004D30000000001FFFFF120000000000000000009
:1004E30000000000FE7FF00000000000000000009C
:1004F300000000007C3FF00000000000000000004E
:1005030000000000781FE000000000000000000071
:10051300000000007207E00000000000000000007F
:10052300000000007000E000000000000000000078
:1005330000000000600078000000000000000000E0
:1005430000000000600060000000000000000000E8
:1005530000000000C003F0000000000000000000E5
:10056300000000014004D80000000000000000006B
:10057300000000010001080000000000000000006E
:10058300000000020C020000000000000000000058
:100593000000000240040000000000000000000012
:1005A3000000000C480000000000000000000000F4
:1005B30000000038410000000000000000000000BF
:1005C30000000FE200000000000000000000000037
:1005D30000000040000000000000000000000000D8
:1005E3000000000000000000000000000000000008
:1005F30000000000000000000000000000000000F8
:10060300000000000000000000000000000000D512
:0B061300FDD5FDD5FDD5FDD5FDD5FDC5
:0B1ADC00EF1FAC0670011E4C70F622DC
:041A2C007F2D7E008C
:101A3000AB07AA06EB1BAE0270011A4E60097FE8E5
:081A40007E03121ADC80ED2286
:101624007DCC7FCC1213787F2C7E01121A30121AD3
:1016340048E4FD7FFF1213787F2C7E01121A3012CA
:101644001A487E027F121212C57F2C7E01121A30B4
:10165400121A48E4FDFCFFFE1217DC7E007F031221
:1016640018EEE4FDFC7F01FE1217DC7E007F1212EF
:1016740018EEE4FDFC7F02FE1217DC7E007F2312CD
:1016840018EEE4FDFC7F03FE1217DC7E007F3012AF
:0916940018EE7FE87E03021A3013
:10186C00121A48E4FDFCFFFE1217DC7E007F3F12CB
:10187C0018EEE4FDFC7F01FE1217DC7E007F4E1299
:10188C0018EEE4FDFC7F02FE1217DC7E007F5C127A
:10189C0018EEE4FDFC7F03FE1217DC7E007F6B026A
:0218AC0018EE34
:10195E00E4F535121A48121A2CE4FDFC7F01FE1232
:10196E0017DC7E007F781218EEE4FDFC7F02FE127B
:10197E0017DC7E007F871218EE121A2C0535E5351E
:08198E00C3940340CE02186C63
:100DE300121A48E4FDFC7F01FE1217DC7E007F9699
:100DF3001218EE7D017C007F027E001217DC7E005C
:100E03007FA71218EE7522FFE522B4FF07120A8DA1
:100E13008F2280F4E522640F706E121A71752BA075
:100E2300752A867529017528007FE87E037D007C7D
:100E33000012169D121A48E4FDFC7F01FE1217DC16
:100E43007E067F121219267D017C007F017E00122F
:100E530017DC7E007FB41218EEE4FDFC7F02FE1265
:100E630017DC7E007FC31218EE120A8DBFFF14D267
:100E7300B37F0A7E00121A30C2B37F097E00121AB2
:100E83003080E6121A5D802CE522640E7029F5236A
:100E9300121A48121A2C7D017C007F017E00121762
:100EA300DC7E007FD21218EE121A2C0523E523C331
:0D0EB300940340DC02186C12195E120DE36E
:010EC000220F
:100CF100121A48E4FDFC7F01FE1217DC7E007FDF43
:100D01001218EE7D017C007F027E001217DC7E004E
:100D11007FA71218EE7522FFE522B4FF07120A8D94
:100D21008F2280F4E522640F6003020DAD121AAD2B
:100D3100752BA0752A86752901752800E4752F3257
:100D4100F52EF52DF52C753314F532F531F5307F8F
:100D5100E87E03FDFC121063121A48E4FDFC7F01DA
:100D6100FE1217DC7E067F141219267D017C007F9E
:100D7100017E001217DC7E007FF01218EEE4FDFC0C
:100D81007F02FE1217DC7E007FC31218EE120A8D5D
:100D9100BFFF14D2B37F0A7E00121A30C2B37F099B
:100DA1007E00121A3080E6121A5D802CE522640E54
:100DB1007029F523121A48121A2C7D017C007F013B
:100DC1007E001217DC7E007FD21218EE121A2C055B
:100DD10023E523C3940340DC02186C12195E120C44
:010DE100F120
:010DE20022EE
:100EC100121A48E4FDFC7F01FE1217DC7E007FFF51
:100ED1001218EE7D017C007F027E001217DC7E007D
:100EE1007FA71218EE7522FFE522B4FF07120A8DC3
:100EF1008F2280F4E522640F7061121A857D007CD7
:100F010020E4FFFE12152E121A48E4FDFC7F01FEBB
:100F11001217DC7E067F161219267D017C007F01E7
:100F21007E001217DC7E017F101218EEE4FDFC7FBB
:100F310002FE1217DC7E007FC31218EE120A8DBF6B
:100F4100FF14D2B37F147E00121ADCC2B37F057E78
:100F510000121ADC80E6121A5D802CE522640E7004
:100F610029F523121A48121A2C7D017C007F017E7B
:100F7100001217DC7E007FD21218EE121A2C052304
:100F8100E523C3940340DC02186C12195E120EC1F2
:010F9100223D
:10113100121A48E4FDFC7F01FE1217DC7E017F1FBD
:101141001218EE7D017C007F027E001217DC7E000A
:101151007FA71218EE7522FFE522B4FF07120A8D50
:101161008F2280F4E522640F705C121A997F0A12B3
:101171001786121A48E4FDFC7F01FE1217DC7E0679
:101181007F181219267D017C007F017E001217DC79
:101191007E017F301218EEE4FDFC7F02FE1217DCA7
:1011A1007E007FC31218EE120A8DBFFF14D2B27FE8
:1011B1001E7E00121ADCC2B27F1E7E00121ADC8073
:1011C100E6121A5D802CE522640E7029F523121AAD
:1011D10048121A2C7D017C007F017E001217DC7EF3
:1011E100007FD21218EE121A2C0523E523C39403B3
:0B11F10040DC02186C12195E12113174
:0111FC0022D0
:100F9200121A48E4FDFC7F01FE1217DC7E017F3F3E
:100FA2001218EE7D017C007F027E001217DC7E00AB
:100FB2007FA71218EE7522FFE522B4FF07120A8DF1
:100FC2008F2280F4E522640F7061121827121A48EA
:100FD200E4FDFC7F01FE1217DC7E067F1A12192641
:100FE2007D017C007F017E001217DC7E017F4E12A4
:100FF20018EEE4FDFC7F02FE1217DC7E007FC312B6
:1010020018EE120A8DBFFF1E7FD07E07121A0A7FCA
:101012000A7E00121ADC7FA07E0F121A0A7F0A7E55
:1010220000121ADC80DC121A5D802CE522640E703C
:1010320029F523121A48121A2C7D017C007F017EA9
:10104200001217DC7E007FD21218EE121A2C052332
:10105200E523C3940340DC02186C12195E120F924E
:01106200226B
:1011FD00121A48E4FDFCFFFE1217DC7E017F5B1224
:10120D0018EEE4FDFC7F01FE1217DC7E017F6C12EF
:10121D0018EE7D037C007F017E001217DC7E067FB9
:10122D001C1218EE7D047C007F017E001217DC7EFF
:10123D00017F731218EEE4FDFC7F02FE1217DC7EB7
:10124D00017F7C1218EEE4FDFC7F03FE1217DC7E9D
:10125D00017F8D1218EE7522FFE522B4FF07120AE9
:10126D008D8F2280F4E522C39401400CE522D394A6
:10127D00095005AF2202061EE522640E7033F523D8
:10128D00F524121A48121A2C7D017C007F017E0074
:10129D001217DC7E007FD21218EE121A2C0524E5EF
:1012AD002470020523C39403E523940040D402184F
:0712BD006C12195E1211FD15
:0112C4002207
:02061E008F2526
:10062000C200C201C202C20385252A753201121A14
:1006300048E4FDFCFFFE1217DC7E017F9E1218EEDF
:10064000E4FDFC7F01FE1217DCE5252430FF121AC1
:10065000C17525FFE525B4FF07120A8D8F2580F4AB
:10066000E525B4100040030207A6900671F828287B
:10067000730206A10206A10206A10206A10206A1BA
:100680000206A10206A10206A10206A10206A1021B
:1006900006FA02070C02072302073902077602074F
:1006A000A1E5252430FF121AC1E532C39408500C8D
:1006B000742A2532F8A62505320207A6E4F534127D
:1006C0001A48121A2C7D017C007F017E001217DC73
:1006D0007E017FAE1218EE7D017C007F027E00124B
:1006E00017DC7E017FBB1218EE121A2C0534E5349C
:1006F000C3940340CAD2020207A67F48121AC17FE0
:100700005A121AC1753301D2010207A67F4B121A81
:10071000C17F48121AC17F5A121AC1753302D20121
:100720000207A67F4D121AC17F48121AC17F5A12C2
:100730001AC1753303D201806DE4F534121A4812E0
:100740001A2C7D017C007F017E001217DC7E017F68
:10075000C81218EE7D017C007F027E001217DC7E3D
:10076000017FBB1218EE121A2C0534E534C3940332
:1007700040CAD2028030E4F534121A48121A2C7D95
:10078000017C007F017E001217DC7E007FD21218F0
:10079000EE121A2C0534E534C3940340DCD20080F9
:1007A0000512195ED2002000092001062002030272
:1007B0000651200103020A83E4F529F528F527F5FF
:1007C00026F534E534C39532503AE47F0AFEFDFC49
:1007D000AB29AA28A927A826121713C004A905AA7D
:1007E00006AB07742A2534F8E6FFE4FCFDFED000D2
:1007F000EB2FF529EE3AF528ED39F527EC38F526FB
:10080000053480BFE53324FE602814605124026063
:10081000030208937F807EF07DFA7C02AB29AA2830
:10082000A927A826D31217625004D2038065C203F9
:100830008061E47F507EC3FDFCAB29AA28A927A8CC
:1008400026D31217625013D203AF29AE28AD27ACBE
:1008500026E47BE87A03F9F8802AC2038035E47F36
:1008600032FEFDFCAB29AA28A927A826D3121762BD
:10087000501FD203AF29AE28AD27AC267B407A4269
:10088000790F78001217138F298E288D278C2680D8
:1008900002C203200303020A417D017C007F027E25
:1008A000001217DC7E017FD51218EE7D017C007FDF
:1008B000037E001217DC7E017FE21218EE7525FF21
:1008C000E525B4FF07120A8D8F2580F4E525640F16
:1008D0007069121A5DAF29AE28AD27AC2675390FA5
:1008E000753AA01218AEE4FFFE1219E67F027E00F0
:1008F0001219E67F037E001219E6E4FDFCFFFE12EA
:1009000017DC7E017FEF1218EE7D057C007F017EF3
:10091000001217DC7E017FFE1218EEE4FDFC7F0260
:10092000FE1217DC7E007FC31218EE120A8DEFF460
:1009300060F9121A5D12186C020A83E525640D70C5
:100940003DF534121A48121A2C7D017C007F017E7D
:10095000001217DC7E017FC81218EE7D017C007F3B
:10096000027E001217DC7E017FBB1218EE121A2CD9
:100970000534E534C3940340CAD202020A83E52554
:10098000640E702BF534121A48121A2C7D017C006B
:100990007F017E001217DC7E007FD21218EE121A41
:1009A0002C0534E534C3940340DCD202020A83E50B
:1009B00025C3940D40030208CCE4F5347F027E0089
:1009C0001219E67F037E001219E6121A2C7D017CB3
:1009D000007F027E001217DC7E027F051218EE7D7A
:1009E000017C007F037E001217DC7E017FBB1218A2
:1009F000EE121A2C0534E534C3940340BF7F027E07
:100A0000001219E67F037E001219E67D017C007F4B
:100A1000027E001217DC7E017FD51218EE7D017C6C
:100A2000007F037E001217DC7E017FE21218EE7554
:100A300025FFE525F460030209AF120A8D8F25809A
:100A4000F17F787E00121A30E4F534121A48121A37
:100A50002C7D017C007F017E001217DC7E017FAEC1
:100A60001218EE7D017C007F027E001217DC7E01F1
:100A70007FBB1218EE121A2CD2020534E534C3944F
:0C0A80000340C82002033000031211FDE7
:010A8C002247
:061AE700040E0023CA9961
:1019C000D2B5D2B4C2B6D2B7C2B77D107F1D12193C
:0419D000D47D060FAD
:1019D400E5A054C0FEEF543F4EF5A08D80C2B5D2B1
:0219E400B5222A
:101A5D001219C0E4FD0F1219D47D600F1219D4D2E2
:041A6D00B6C2B62225
:080BD0008F3F8E3E8D3D8C3CF1
:100BD800851147851046850F45850E448F4878084E
:100BE8001217738F49AF3FAE3EAD3DAC3C78101243
:100BF80017738F4AAF3FAE3EAD3DAC3C7818121725
:100C0800738F4BAF48E4FCFDFEAB47AA46A945A845
:100C1800441217138F438E428D418C408F087808F9
:100C28001217738F438E428D418C40AF49E4FCFD0F
:100C3800FEAB47AA46A945A844121713E5432FF56A
:100C480043E5423EF542E5413DF541E5403CF5408E
:100C5800854309AF43AE42AD41FC78081217738F44
:100C6800438E428D418C40AF4AE4FCFDFEAB47AA5F
:100C780046A945A844121713E5432FF543E5423E1C
:100C8800F542E5413DF541E5403CF54085430AAF75
:100C980043AE42AD41FC78081217738F438E428DE4
:100CA800418C40AF4BE4FCFDFEAB47AA46A945A8E2
:100CB80044121713E5432FF543E5423EF542E5415B
:100CC8003DF541E5403CF54085430BAF43AE42ADB1
:100CD80041FC78081217738F438E428D418C408FE8
:080CE8000C78081217738F0D40
:010CF00022E1
:1018AE00753B04120BD07C06ECD394004010AF3B7A
:1018BE00053B1C74082CF8E6FD1219D480EAE539B4
:1018CE00FD7F211219D4E53AFD0F1219D4E539FD29
:0F18DE000F1219D4E53AFD0F1219D4D2B6C2B6C3
:0118ED0022D8
:101A71001219C07D020F1219D47D600F1219D4D230
:041A8100B6C2B62211
:08169D008F278E268D258C2479
:1016A500752E0F752FA0752C04752D0AAC24120B01
:1016B500D07C06ECD394004010AF2C052C1C74088C
:1016C5002CF8E6FD1219D480EAAF2BAE2AAD29AC71
:1016D50028120BD07C06ECD394004010AF2D052DBD
:1016E5001C74082CF8E6FD1219D480EAE52EFD7F5E
:1016F500211219D4E52FFD0F1219D4E52EFD0F1275
:0D17050019D4E52FFD0F1219D4D2B6C2B6CB
:0117120022B4
:101A85001219C07D080F1219D47D600F1219D4D216
:041A9500B6C2B622FD
:08152E008E248F25AB05AA04F1
:10153600E47529607528EAF527F526752A0F752BB7
:10154600A0752C04E524FDE4FF1219D4E525FD0F52
:101556001219D4AD020F1219D4EBFD0F1219D4AF24
:1015660029AE28AD27AC26120BD07C06ECD394000E
:101576004010AF2C052C1C74082CF8E6FD1219D46B
:1015860080EAE52AFD7F211219D4E52BFD0F1219F9
:10159600D4E52AFD0F1219D4E52BFD0F1219D4D26A
:0315A600B6C2B614
:0115A900221F
:101A99001219C0E4FD0F1219D47D700F1219D4D296
:041AA900B6C2B622E9
:021786008F24AE
:101788007F607EEA7D007C0075250F7526A0752791
:1017980004120BD07C06ECD394004010AF27052729
:1017A8001C74082CF8E6FD1219D480EAE525FD7FA3
:1017B800211219D4E526FD0F1219D4E525FD0F12C3
:1017C80019D4E526FD0F1219D4AD240F1219D4D25D
:0317D800B6C2B6E0
:0117DB0022EB
:10182700E47527607526EAF525F52475280412194D
:10183700C0E4FD0F1219D47D600F1219D4AF27AE83
:1018470026AD25AC24120BD07C06ECD394004010B7
:10185700AF2805281C74082CF8E6FD1219D480EA75
:04186700D2B6C2B67D
:01186B00225A
:101A0A00AB07AA06AD027F211219D4EBFD0F1219FA
:101A1A00D4AD020F1219D4EBFD0F1219D4D2B6C2EB
:021A2A00B622E2
:101AAD001219C07D240F1219D47D600F1219D4D2D2
:041ABD00B6C2B622D5
:081063008F278E268D258C24B9
:10106B0075370F7538A075340475350A753610ACA5
:10107B0024120BD07C06ECD394004010AF34053413
:10108B001C74082CF8E6FD1219D480EAAF2BAE2A9B
:10109B00AD29AC28120BD07C06ECD394004010AFDA
:1010AB003505351C74082CF8E6FD1219D480EAAF0F
:1010BB002FAE2EAD2DAC2C120BD07C06ECD39400A6
:1010CB004010AF3605361C74082CF8E6FD1219D407
:1010DB0080EAAF33AE32AD31AC307810121773EF0C
:1010EB00540FFFAD077F1A1219D4AF33AE32AD31A7
:1010FB00AC307808121773AD077F1B1219D4AD33C0
:10110B000F1219D4E537FD7F211219D4E538FD0FE5
:10111B001219D4E537FD0F1219D4E538FD0F12194A
:05112B00D4D2B6C2B6EB
:01113000229C
:03000000021423C4
:0C142300787FE4F6D8FD75814B02146A56
:10171300E88FF0A4CC8BF0A42CFCE98EF0A42CFC75
:101723008AF0EDA42CFCEA8EF0A4CDA8F08BF0A4F3
:101733002DCC3825F0FDE98FF0A42CCD35F0FCEB52
:101743008EF0A4FEA9F0EB8FF0A4CFC5F02ECD3917
:0F175300FEE43CFCEAA42DCE35F0FDE43CFC2284
:10176200EB9FF5F0EA9E42F0E99D42F0E89C45F0DD
:011772002254
:10177300E8600FECC313FCED13FDEE13FEEF13FF54
:03178300D8F12278
:10142F000215AAE493A3F8E493A34003F68001F214
:10143F0008DFF48029E493A3F85407240CC8C333BE
:10144F00C4540F4420C8834004F456800146F6DF8D
:10145F00E4800B0102040810204080901AE7E47E1C
:10146F00019360BCA3FF543F30E509541FFEE49382
:10147F00A360010ECF54C025E060A840B8E493A349
:10148F00FAE493A3F8E493A3C8C582C8CAC583CA74
:10149F00F0A3C8C582C8CAC583CADFE9DEE780BE2C
:011AED0000F8
:00000001FF
