:100000000C9446000C9463000C9463000C94630001
:100010000C9463000C9463000C9463000C946300D4
:100020000C9463000C9463000C9463000C946300C4
:100030000C9463000C9463000C9463000C946300B4
:100040000C9463000C9463000C9463000C946300A4
:100050000C9463000C9463000C9463000C94630094
:100060000C9463000C9463000C9463000C94630084
:100070000C9463000C9463000C9463000C94630074
:100080000C9463000C9463000C94630011241FBE55
:10009000CFEFD0E1DEBFCDBF11E0A0E0B1E0EEEDEB
:1000A000FBE100E00BBF02C007900D92AA34B1073C
:1000B000D9F711E0AAE4B1E001C01D92A435B1075F
:1000C000E1F70C9465000C940000CFEFD0E1DEBFA7
:1000D000CDBF0E9411018FEF80933A0010923B0038
:1000E0000E94280580913B00816080933B008AE05C
:1000F00090E00E94A10080913B008E7F80933B00A6
:100100008AE090E00E94A100EDCFCF93DF93CDB7BE
:10011000DEB721970FB6F894DEBF0FBECDBF89833F
:100120008981815089838F3F19F000000000F8CF4A
:1001300021960FB6F894DEBF0FBECDBFDF91CF91F1
:100140000895CF93DF93CDB7DEB724970FB6F89419
:10015000DEBF0FBECDBF9A83898389819A810197C3
:100160009A8389832FEF8F3F920769F01C821B824D
:100170008B819C818A30910580F78B819C810196CF
:100180009C838B83F5CF24960FB6F894DEBF0FBE09
:10019000CDBFDF91CF910895CF93DF93CDB7DEB779
:1001A000809122008FEF80932200809134008FEFA6
:1001B00080933400809137008FEF809337008091D7
:1001C0003800806C80933800DF91CF910895CF93F1
:1001D000DF93CDB7DEB7809138008F7D80933800F4
:1001E00081E090E00E94A1008091380080628093BD
:1001F0003800DF91CF910895CF93DF93CDB7DEB76D
:10020000809138008061809338008AE090E00E94FD
:10021000A100809138008F7E80933800DF91CF91CC
:100220000895CF93DF93CDB7DEB70E94CC000E9434
:10023000FC00DF91CF910895CF93DF93CDB7DEB768
:1002400022970FB6F894DEBF0FBECDBF89836A83B5
:1002500080913800806880933800898180932300E2
:1002600000009FE7809138008923809338008A81BD
:1002700080933500000080913800806880933800BA
:10028000000022960FB6F894DEBF0FBECDBFDF91FF
:10029000CF910895CF93DF93CDB7DEB724970FB6F4
:1002A000F894DEBF0FBECDBF69837A838B839C83B6
:1002B00020E030E040E853E469817A818B819C81C1
:1002C0000E942C09DC01CB0120EB33E845E85DE41A
:1002D000BC01CD010E94470ADC01CB01BC01CD016C
:1002E0000E947807DC01CB0180934E0120E030E0D2
:1002F00040E857E469817A818B819C810E942C09B6
:10030000DC01CB0120EB33E845E85DE4BC01CD0125
:100310000E94470ADC01CB01BC01CD010E94780795
:10032000DC01CB0180934F0120E030E040E85BE44A
:1003300069817A818B819C810E942C09DC01CB012F
:1003400020EB33E845E85DE4BC01CD010E94470A9B
:10035000DC01CB01BC01CD010E947807DC01CB019F
:100360008093500120E030E040E85FE469817A81C9
:100370008B819C810E942C09DC01CB0120EB33E8AE
:1003800045E85DE4BC01CD010E94470ADC01CB01D8
:10039000BC01CD010E947807DC01CB0180935101A3
:1003A00020E030E040E853E569817A818B819C81CF
:1003B0000E942C09DC01CB0120EB33E845E85DE429
:1003C000BC01CD010E94470ADC01CB01BC01CD017B
:1003D0000E947807DC01CB018093520120E030E0DD
:1003E00040E857E569817A818B819C810E942C09C4
:1003F000DC01CB0120EB33E845E85DE4BC01CD0135
:100400000E94470ADC01CB01BC01CD010E947807A4
:10041000DC01CB018093530124960FB6F894DEBF24
:100420000FBECDBFDF91CF910895CF93DF93CDB7AE
:10043000DEB724970FB6F894DEBF0FBECDBF9A8308
:1004400089831B821C828DE18C831B828B8184308B
:1004500090F48B81282F332789819A81F901E80F45
:10046000F91F9C818B81890F60810E941C018B8107
:100470008F5F8B83EBCF24960FB6F894DEBF0FBE51
:10048000CDBFDF91CF910895CF93DF93CDB7DEB786
:1004900022970FB6F894DEBF0FBECDBF9A83898333
:1004A000E981FA81608180E00E941C0189819A8142
:1004B000FC013196608181E00E941C0122960FB6FA
:1004C000F894DEBF0FBECDBFDF91CF910895CF93DB
:1004D000DF93CDB7DEB723970FB6F894DEBF0FBE1C
:1004E000CDBF9A8389831B82E981FA8180818B83C6
:1004F0006B8182E00E941C0189819A81FC01319606
:1005000080818B836B8183E00E941C0123960FB650
:10051000F894DEBF0FBECDBFDF91CF910895CF938A
:10052000DF93CDB7DEB724970FB6F894DEBF0FBECA
:10053000CDBF9A8389831B821C8280E18C831B82BE
:100540008B81863090F48B81282F332789819A8183
:10055000F901E80FF91F9C818B81890F60810E944E
:100560001C018B818F5F8B83EBCF24960FB6F894A1
:10057000DEBF0FBECDBFDF91CF910895CF93DF9344
:10058000CDB7DEB724970FB6F894DEBF0FBECDBF50
:100590009A8389831C828AE18C831B828B818330BE
:1005A00090F48B81282F332789819A81F901E80FF4
:1005B000F91F9C818B81890F60810E941C018B81B6
:1005C0008F5F8B83EBCF24960FB6F894DEBF0FBE00
:1005D000CDBFDF91CF910895CF93DF93CDB7DEB735
:1005E00024970FB6F894DEBF0FBECDBF9A838983E0
:1005F0001B821C8284E08C831B828B81863090F46A
:100600008B81282F332789819A81F901E80FF91FFF
:100610009C818B81890F60810E941C018B818F5F7F
:100620008B83EBCF24960FB6F894DEBF0FBECDBF01
:10063000DF91CF910895CF93DF93CDB7DEB72497A5
:100640000FB6F894DEBF0FBECDBF9A8389831B829D
:100650001C828AE08C831B828B81863090F48B8194
:10066000282F332789819A81F901E80FF91F9C818E
:100670008B81890F60810E941C018B818F5F8B832E
:10068000EBCF24960FB6F894DEBF0FBECDBFDF913F
:10069000CF910895CF93DF93CDB7DEB724970FB6F0
:1006A000F894DEBF0FBECDBF9A8389831C8281E29E
:1006B0008C831B828B81823090F48B81282F33278F
:1006C00089819A81F901E80FF91F9C818B81890F3B
:1006D00060810E941C018B818F5F8B83EBCF2496FE
:1006E0000FB6F894DEBF0FBECDBFDF91CF91089556
:1006F000CF93DF93CDB7DEB724970FB6F894DEBF64
:100700000FBECDBF9A8389831C8283E28C831B82B8
:100710008B81823090F48B81282F332789819A81B5
:10072000F901E80FF91F9C818B81890F60810E947C
:100730001C018B818F5F8B83EBCF24960FB6F894CF
:10074000DEBF0FBECDBFDF91CF910895CF93DF9372
:10075000CDB7DEB721970FB6F894DEBF0FBECDBF81
:100760008983698185E20E941C0121960FB6F89465
:10077000DEBF0FBECDBFDF91CF910895CF93DF9342
:10078000CDB7DEB722970FB6F894DEBF0FBECDBF50
:100790009A838983E981FA81608186E20E941C0143
:1007A00089819A81FC013196608187E20E941C0157
:1007B00022960FB6F894DEBF0FBECDBFDF91CF916A
:1007C0000895CF93DF93CDB7DEB724970FB6F89493
:1007D000DEBF0FBECDBF84E091E00E941502809184
:1007E000000190910101A0910201B0910301BB238E
:1007F0007CF0609100017091010180910201909163
:1008000003010E942D0B69837A838B839C8334C000
:100810008091000190910101A0910201B09103012A
:1008200081709070A070B070209100013091010132
:1008300040910201509103015695479537952795B0
:10084000822B932BA42BB52BBC01CD010E942D0B29
:1008500069837A838B839C8329813A814B815C8174
:1008600069817A818B819C810E94C608DC01CB0161
:1008700089839A83AB83BC8369817A818B819C81D4
:100880000E944A018EE491E00E94EC020E94E7007F
:1008900024960FB6F894DEBF0FBECDBFDF91CF9187
:1008A0000895CF93DF93CDB7DEB728970FB6F894AE
:1008B000DEBF0FBECDBF80E191E00E9415028DE149
:1008C00091E00E944A038FE191E00E9478038091B9
:1008D000080190910901A0910A01B0910B01BB237D
:1008E0007CF0609108017091090180910A0190915A
:1008F0000B010E942D0B69837A838B839C8334C008
:100900008091080190910901A0910A01B0910B0119
:1009100081709070A070B070209108013091090131
:1009200040910A0150910B015695479537952795AF
:10093000822B932BA42BB52BBC01CD010E942D0B38
:1009400069837A838B839C8329813A814B815C8183
:1009500069817A818B819C810E94C608DC01CB0170
:1009600089839A83AB83BC8369817A818B819C81E3
:100970000E944A018EE491E00E94EC0280910C01F9
:1009800090910D01A0910E01B0910F01BB237CF05D
:1009900060910C0170910D0180910E0190910F01F9
:1009A0000E942D0B6D837E838F83988734C0809146
:1009B0000C0190910D01A0910E01B0910F01817079
:1009C0009070A070B07020910C0130910D01409199
:1009D0000E0150910F015695479537952795822B1B
:1009E000932BA42BB52BBC01CD010E942D0B6D8345
:1009F0007E838F8398872D813E814F8158856D81BD
:100A00007E818F8198850E94C608DC01CB018D8391
:100A10009E83AF83B8876D817E818F8198850E9488
:100A20004A018EE491E00E941B0384E191E00E9460
:100A30008F028AE191E00E94BE020E94E7002896A0
:100A40000FB6F894DEBF0FBECDBFDF91CF910895F2
:100A5000CF93DF93CDB7DEB728970FB6F894DEBFFC
:100A60000FBECDBF8091080190910901A0910A01AC
:100A7000B0910B01BB237CF06091080170910901DA
:100A800080910A0190910B010E942D0B69837A835A
:100A90008B839C8334C08091080190910901A091BF
:100AA0000A01B0910B0181709070A070B07020911C
:100AB00008013091090140910A0150910B015695AE
:100AC000479537952795822B932BA42BB52BBC01EB
:100AD000CD010E942D0B69837A838B839C832981AE
:100AE0003A814B815C8169817A818B819C810E94F2
:100AF000C608DC01CB0189839A83AB83BC836981FF
:100B00007A818B819C810E944A018EE491E00E944F
:100B1000EC0280910C0190910D01A0910E01B09119
:100B20000F01BB237CF060910C0170910D0180914D
:100B30000E0190910F010E942D0B6D837E838F8398
:100B4000988734C080910C0190910D01A0910E0105
:100B5000B0910F0181709070A070B07020910C0165
:100B600030910D0140910E0150910F01569547951E
:100B700037952795822B932BA42BB52BBC01CD0148
:100B80000E942D0B6D837E838F8398872D813E81FC
:100B90004F8158856D817E818F8198850E94C6081E
:100BA000DC01CB018D839E83AF83B8876D817E810D
:100BB0008F8198850E944A018EE491E00E941B0378
:100BC00081E291E00E9415020E94E70028960FB68C
:100BD000F894DEBF0FBECDBFDF91CF910895CF93C4
:100BE000DF93CDB7DEB724970FB6F894DEBF0FBE04
:100BF000CDBF8091290190912A01A0912B01B09144
:100C00002C01BB237CF06091290170912A01809115
:100C10002B0190912C010E942D0B69837A838B8389
:100C20009C8334C08091290190912A01A0912B01CD
:100C3000B0912C0181709070A070B070209129014A
:100C400030912A0140912B0150912C0156954795E6
:100C500037952795822B932BA42BB52BBC01CD0167
:100C60000E942D0B69837A838B839C8329813A812F
:100C70004B815C8169817A818B819C810E94C6084D
:100C8000DC01CB0189839A83AB83BC8369817A8140
:100C90008B819C810E944A018EE491E00E94EC02CB
:100CA0008DE291E00E944A038AE491E00E94780379
:100CB00083E00E94A60385E291E00E9415020E9453
:100CC000E70024960FB6F894DEBF0FBECDBFDF91CC
:100CD000CF910895CF93DF93CDB7DEB724970FB6AA
:100CE000F894DEBF0FBECDBF8091330190913401E7
:100CF000A0913501B0913601BB237CF060913301A6
:100D00007091340180913501909136010E942D0B34
:100D100069837A838B839C8334C080913301909163
:100D20003401A0913501B091360181709070A070AE
:100D3000B0702091330130913401409135015091D0
:100D400036015695479537952795822B932BA42BE3
:100D5000B52BBC01CD010E942D0B69837A838B8357
:100D60009C8329813A814B815C8169817A818B8165
:100D70009C810E94C608DC01CB0189839A83AB83E6
:100D8000BC8369817A818B819C810E944A018EE4B7
:100D900091E00E94EC028FE291E00E9415022496FD
:100DA0000FB6F894DEBF0FBECDBFDF91CF9108958F
:100DB000CF93DF93CDB7DEB721970FB6F894DEBFA0
:100DC0000FBECDBF89838981882349F48CE491E0EB
:100DD0000E944A038CE491E00E94780308C087E3F4
:100DE00091E00E944A0387E391E00E9478032196F4
:100DF0000FB6F894DEBF0FBECDBFDF91CF9108953F
:100E0000CF93DF93CDB7DEB724970FB6F894DEBF4C
:100E10000FBECDBF89E391E00E94150280910801C9
:100E200090910901A0910A01B0910B01BB237CF0C4
:100E3000609108017091090180910A0190910B0164
:100E40000E942D0B69837A838B839C8334C08091AD
:100E5000080190910901A0910A01B0910B018170E4
:100E60009070A070B07020910801309109014091FC
:100E70000A0150910B015695479537952795822B7E
:100E8000932BA42BB52BBC01CD010E942D0B6983A4
:100E90007A838B839C8329813A814B815C81698130
:100EA0007A818B819C810E94C608DC01CB018983F9
:100EB0009A83AB83BC8369817A818B819C810E94F8
:100EC0004A018EE491E00E94EC028DE391E00E94E1
:100ED00044028FE391E00E9467020E94E70024969B
:100EE0000FB6F894DEBF0FBECDBFDF91CF9108954E
:100EF000EF92FF920F931F937B018C0120E030E073
:100F000040E05FE40E94F70A88239CF020E030E094
:100F100040E05FECC801B7010E94C608DC01CB01CC
:100F2000BC01CD010E94910B605070408040904800
:100F300004C0C801B7010E94910B1F910F91FF904F
:100F4000EF900895A0E0B0E0E8EAF7E00C94B80D67
:100F50008C017B015A01DC018C91823058F0FB013D
:100F60009081923010F4A7010BC1843029F49430A1
:100F700009F4A6C0A80104C19430A9F3923009F481
:100F8000A9C0823081F3F801C280D380FB01628165
:100F90007381F8012481358146815781F70164808E
:100FA000758086809780C601861B970B97FDD8C0F9
:100FB00080970CF46CC06C157D050CF0ADC06624F8
:100FC00077244301F8016181F7018181681709F4F1
:100FD00099C0662309F491C0621A730A840A950ABB
:100FE000A401930157FDC0C0F5011182B60119019A
:100FF0002A0179018A0139014A01089461087108BE
:1010000081089108FFEF6F16FFEF7F06FFEF8F0655
:10101000FFE39F06F0F4A8019701220F331F441F3E
:10102000551F19012A01B601615070406B01790109
:101030008A0139014A010894610871088108910800
:101040008FEF68168FEF78068FEF88068FE398068C
:1010500010F383E0D5018C9357FC64C0F501248321
:1010600035834683578373836283A50189C06F5F8D
:101070007F4FD401C30181709070A070B0709694BE
:10108000879477946794682A792A8A2A9B2A6C1510
:101090007D056CF311C00894C11CD11CDA01C90193
:1010A00081709070A070B0705695479537952795D0
:1010B000282B392B4A2B5B2BC616D70664F382CF1D
:1010C000F8019181FB018181981709F453CF41E424
:1010D00051E056C0823009F04DCF88E0DA01F801C6
:1010E00001900D928A95E1F7F8018181FB019181D0
:1010F0008923FA018183A50143C0261937094809CC
:10110000590970CFF5016183B601260D371D481DC1
:10111000591D19012A019DCF6B0120E030E040E00C
:1011200050E050CFD201C101B695A795979587950C
:1011300021E030E040E050E02222332244225522D8
:10114000282A392A4A2A5B2AF501248235824682D6
:1011500057820894C11CD11CD382C282A50110C041
:10116000909581959F4F24CF81E0F5018183B60151
:1011700050954095309521953F4F4F4F5F4F37CF5A
:10118000CA01E2E1CDB7DEB70C94D40DA0E2B0E025
:10119000ECECF8E00C94C60DDC01CB01898F9A8F42
:1011A000AB8FBC8F2D8F3E8F4F8F58A3BE016F5FCB
:1011B0007F4FCE0149960E94CB0C8E01075F1F4FD7
:1011C000B801CE014D960E94CB0CAE014F5E5F4F31
:1011D000B801CE0101960E94A2070E94E30BDC0138
:1011E000CB01BC01CD01E4E0A0960C94E20DA0E29D
:1011F000B0E0EDEFF8E00C94C60DDC01CB01898F77
:101200009A8FAB8FBC8F2D8F3E8F4F8F58A3BE010F
:101210006F5F7F4FCE0149960E94CB0C8E01075F16
:101220001F4FB801CE014D960E94CB0C8A8591E0EC
:1012300089278A87AE014F5E5F4FB801CE010196C4
:101240000E94A2070E94E30BDC01CB01BC01CD018F
:10125000E4E0A0960C94E20DA0E2B0E0E2E3F9E055
:101260000C94B80DDC01CB01898F9A8FAB8FBC8FAA
:101270002D8F3E8F4F8F58A3BE016F5F7F4FCE01E2
:1012800049960E94CB0C69E070E06C0F7D1FCE0187
:101290004D960E94CB0CFE013196662477244301C3
:1012A000130124018981823098F09985923058F495
:1012B00020E091818A85981321E02A8769E070E017
:1012C0006C0F7D1FD9C0843059F4923009F45BC093
:1012D00020E091818A85981321E02183BF01CCC051
:1012E000943009F44DC0823099F3923009F3ED80C7
:1012F000FE800F8118852D853E854F8558896401B4
:1013000053016FE170E00CC0220F331F441F551FC3
:1013100016950795F794E7946150704077FD36C0B5
:10132000D801C70181709070A070B070892BC9F08E
:1013300080E090E0220E331E441E551E2216330616
:101340004406550610F481E090E0AA2797FDA09589
:10135000BA2F8A0D9B1DAC1DBD1D680E791E8A1EFD
:101360009B1EAA0CBB1CCC1CDD1C57FFCDCF81E003
:1013700090E0A0E0B0E0A82AB92ACA2ADB2AC4CFAC
:10138000823009F095CF61E471E076C0228133812B
:101390008B859C85280F391F2E5F3F4FA90160E088
:1013A00091818A85981361E06A8B97FE0FC02FC0E8
:1013B000CA010197AC019C01660C771C881C991C22
:1013C00057FC41C0220C331C441C551C90E069168C
:1013D00090E0790690E0890690E4990648F33C8B0A
:1013E0002B8BD401C3018F779070A070B0708034C4
:1013F0009105A105B10581F16D8A7E8A8F8A988E4B
:1014000083E0898B61E170E06C0F7D1F35C02F5F39
:101410003F4FA901D401C30181709070A070B070DA
:10142000892B61F0569447943794279480E090E09C
:10143000A0E0B0E8282A392A4A2A5B2A96948794A1
:1014400077946794C3CF81E090E0A0E0B0E0682A91
:10145000792A8A2A9B2AB6CF67FC05C02114310459
:101460004104510449F280E490E0A0E0B0E0680E4D
:10147000791E8A1E9B1EC0CFCB010E94E30BDC01AC
:10148000CB01BC01CD01E2E1A0960C94D40DA8E102
:10149000B0E0EDE4FAE00C94C00DDC01CB01898BE7
:1014A0009A8BAB8BBC8B2D8B3E8B4F8B588FBE0199
:1014B0006F5F7F4FCE0141960E94CB0C8E01075F7C
:1014C0001F4FB801CE0145960E94CB0CFE0131960C
:1014D0002981223008F45FC03985323010F4B80118
:1014E0007BC081819A8589278183243009F455C086
:1014F000223009F452C0343009F454C0323009F4B7
:1015000058C06B817C818B859C85681B790B2D81F4
:101510003E814F815885ED84FE840F8518892E15F4
:101520003F054007510730F4220F331F441F551F5A
:10153000615070407C836B8380E090E0A0E0B0E479
:10154000AA24BB2465012E153F054007510740F032
:10155000A82AB92ACA2ADB2A2E193F09400B510BA7
:10156000B695A79597958795220F331F441F551F52
:101570000097A105B10539F7D601C5018F779070A5
:10158000A070B07080349105A105B105A9F0A482C6
:10159000B582C682D782BF011FC02317E1F761E47D
:1015A00071E01AC01D821E821F8218861C821B8257
:1015B000F2CF84E08983EFCFA7FC05C02115310568
:1015C0004105510521F380E490E0A0E0B0E0A80ED1
:1015D000B91ECA1EDB1EDBCFCB010E94E30BDC0170
:1015E000CB01BC01CD01EAE068960C94DC0DA8E1CA
:1015F000B0E0EDEFFAE00C94C60DDC01CB01898B75
:101600009A8BAB8BBC8B2D8B3E8B4F8B588FBE0137
:101610006F5F7F4FCE0141960E94CB0C8E01075F1A
:101620001F4FB801CE0145960E94CB0C89818230B4
:1016300018F08985823018F42FEF3FEF09C0B80108
:10164000CE0101960E94450D282F332727FD3095A6
:10165000C901E4E068960C94E20DA8E0B0E0E3E391
:10166000FBE00C94C40D9B01AC017B018C01EE24CA
:1016700017FDE394FF2400271127EA822115310585
:101680004105510539F482E08983CE0101960E941B
:10169000E30B43C083E089836EE170E0CB01EE2071
:1016A00031F579018A01A80197012030E0E03E0779
:1016B000E0E04E07E0E45E0798F479018A01EE0C61
:1016C000FF1C001F111F0197BC01A8019701E0E05A
:1016D000EE16E0E0FE06E0E00E07E0E41E0768F329
:1016E000ED82FE820F8318877C836B83CECF203000
:1016F000E0E03E07E0E04E07E0E85E0741F0EE2460
:10170000FF248701E21AF30A040B150BCCCF7C836C
:101710006B8360E070E080E09FECE6E028960C943C
:10172000E00DACE0B0E0E7E9FBE00C94C80DDC01B3
:10173000CB0189879A87AB87BC87BE016F5F7F4FDC
:10174000CE0109960E94CB0C8981823011F0823043
:1017500028F460E070E080E090E031C0843039F03F
:101760002B813C8137FDF5CF2F3131056CF08A811B
:10177000882329F060E070E080E090E820C06FEFFF
:101780007FEF8FEF9FE71BC08EE190E0821B930BF2
:101790002D813E814F81588504C0569547953795D8
:1017A00027958A95D2F78A81882339F050954095FC
:1017B000309521953F4F4F4F5F4FCA01B901E2E08D
:1017C0002C960C94E40DA0E0B0E0E9EEFBE00C9464
:1017D000BE0D882499245401DC01FC01248135814B
:1017E000468157818181082F112760E070E08C913C
:1017F000823020F46FEF70E04061A4C0843009F4BF
:1018000064C0823009F463C02115310541055105DA
:1018100009F498C0FD0182819381FFEF82389F0710
:101820000CF050C0A2E8EA2EAFEFFA2EE81AF90A3F
:101830008AE1E816F1040CF06BC06B0181E090E0E6
:10184000A0E0B0E00E2C04C0880F991FAA1FBB1F98
:101850000A94D2F70197A109B10982239323A42303
:10186000B5230097A105B10519F0F1E0CF2ED12CD9
:1018700004C05695479537952795EA94D2F7C60147
:10188000AA2797FDA095BA2F282B392B4A2B5B2B23
:10189000DA01C9018F779070A070B0708034910523
:1018A000A105B105D1F1215C3F4F4F4F5F4F203073
:1018B000E0E03E07E0E04E07E0E45E0708F161E0AB
:1018C00070E01EC0803891053CF06FEF70E020E0C2
:1018D00030E040E050E036C0BC0161587F4FDA0193
:1018E000C9018F779070A070B07080349105A10508
:1018F000B105D1F0215C3F4F4F4F5F4F57FD1BC0EB
:1019000097E056954795379527959A95D1F71AC040
:1019100020E030E040E050E0BBCF27FFC8CF205CA4
:101920003F4F4F4F5F4FC3CF27FFE8CF205C3F4F64
:101930004F4F5F4FE3CF56954795379527956F5F8C
:101940007F4FDECF822E932E942F9F778A2D807823
:10195000A82EA92A962F9795992797958A2D8F7744
:10196000A82EA92A76956795962F9F778B2D80783C
:10197000B82EB92A902F9795992797958B2D8F7709
:10198000B82EB92AD501C401BC01CD01ECE0CDB718
:10199000DEB70C94DA0DCF93DF93FC01DB014081BD
:1019A00051812281622F6F7770E0221F2227221F30
:1019B0009381892F880F822B282F3327991F9927EE
:1019C000991FED0199832115310541F44115510508
:1019D00061057105E1F482E08C9354C02F3F31051D
:1019E00009F441C02F573040FD013383228383E047
:1019F0008C9387E0440F551F661F771F8A95D1F798
:101A00007064ED014C835D836E837F833BC022E86D
:101A10003FEFF901C7E0440F551F661F771FCA95B6
:101A2000D1F783E08C93403080E0580780E068076E
:101A300080E4780778F4440F551F661F771F215004
:101A40003040F9014030C0E05C07C0E06C07C0E402
:101A50007C0788F3ED01FB83EA83FD014483558312
:101A6000668377830FC0411551056105710519F42F
:101A700084E08C9307C064FF03C081E08C93C1CFE6
:101A80001C92BFCFDF91CF9108950F931F93CF93F7
:101A9000DF93FC01DB018081823018F09C91923051
:101AA00018F461E070E05EC08430C1F0843001F170
:101AB000943009F447C0823009F44BC0823009F4F5
:101AC0004EC09230A9F04181ED0189814817B9F0EB
:101AD000442389F08FEF9FEFBC0144C0943031F76D
:101AE000EB018981682F77278181681B71093AC0D2
:101AF0008181882379F781E090E0BC0133C02281A5
:101B00003381ED018A819B81821793070CF328179B
:101B100039079CF00481158126813781FD0164819C
:101B2000758186819781601771078207930780F21C
:101B3000061717072807390778F4442359F281E07C
:101B400090E0DBCFFD018181882321F281E090E0EC
:101B5000D4CF923009F0B2CF60E070E003C0ED0165
:101B60008981F2CFCB01DF91CF911F910F91089521
:101B70002F923F924F925F926F927F928F929F929D
:101B8000AF92BF92CF92DF92EF92FF920F931F938B
:101B9000CF93DF93CDB7DEB7CA1BDB0B0FB6F8943C
:101BA000DEBF0FBECDBF09942A88398848885F847C
:101BB0006E847D848C849B84AA84B984C884DF80ED
:101BC000EE80FD800C811B81AA81B981CE0FD11DD1
:0E1BD0000FB6F894DEBF0FBECDBFED01089535
:101BDE00C0E1E4001047004010270000A08601007D
:101BEE0010472450000000FFFFFFFFFFFFFFFFFF25
:101BFE00FF1047024010470070A0860100FFFF143F
:101C0E0047016030750000FFFF104708401000309C
:0A1C1E0000000000000000000000BC
:00000001FF
