:03000000020517DF
:0C051700787FE4F6D8FD75810B02046EBD
:10000300FFFFFFFFFFFFFFFFFFFFFFFFFFFFFF07F5
:1000130057535707FF0FE30FEFFFEFEFEF03EFEF39
:10002300EF0FE30FEFFF77771757575357571777AD
:1000330077FFFB8BAB83AB83AB8BFF37DBFFFFFF21
:10004300FFFFFFFFFFFFFFFFFFFFFFFFFFFFFF07B5
:1000530057535707FF0FE30FEFFFEFEFEF03EFEFF9
:10006300EF0FE30FEFFF777717575753575717776D
:1000730077FFFB8BAB83AB83AB8BFF37DBFFFFFFE1
:10008300FFFFFFFFFFFFFFFFFFFFFFFFFFFFEEF598
:10009300FBF4EFE0FFF4FBF4EFFFE0EEEEEEEEE057
:1000A300FFF4FBF5ECFFE2EFEFE1FDFDFDF9F7EF08
:1000B300EEFFEBF2FAE2EAFAF2EBFFE0FDFFFFFFFD
:1000C300FFFFFFFFFFFFFFFFFFFFFFFFFFFFEEF558
:1000D300FBF4EFE0FFF4FBF4EFFFE0EEEEEEEEE017
:1000E300FFF4FBF5ECFFE2EFEFE1FDFDFDF9F7EFC8
:1000F300EEFFEBF2FAE2EAFAF2EBFFE0FDFFFFFFBD
:10010300FFFFFFFFFFFFFFFFFFFFFFFFFFFFFFFFFC
:10011300FFFFFFFFE38181E3FFFFDFDDD54D9D009F
:100123009D4DD5DDDFFFFBFB00FBFB9BEBFB0FE9ED
:10013300EEFFEFEE2AAAAAA8A20AAA6EEFFFFFFF1C
:10014300FFFFFFFFFFFFFFFFFFFFFFFFFFFFFFFFBC
:10015300FFFFFFFFE38181E3FFFFDFDDD54D9D005F
:100163009D4DD5DDDFFFFBFB00FBFB9BEBFB0FE9AD
:10017300EEFFEFEE2AAAAAA8A20AAA6EEFFFFFFFDC
:10018300FFFFFFFFFFFFFFFFFFFFFFFFFFFFFFFF7C
:10019300FFFFFFFFFFFCFCFFFFFFFDFDFEFF7F787E
:1001A3007F7FFE7D7DBFBBBBBABA3ABBBBBDBE7D05
:1001B3007BBFBFBF78FAFAFAFAF8FFFFFEFFFFFF33
:1001C300FFFFFFFFFFFFFFFFFFFFFFFFFFFFFFFF3C
:1001D300FFFFFFFFFFFCFCFFFFFFFDFDFEFF7F783E
:1001E3007F7FFE7D7DBFBBBBBABA3ABBBBBDBE7DC5
:1001F3007BBFBFBF78FAFAFAFAF8FFFFFEFFFFFFF3
:10020300FFFFFFFFFFFFFFFFFFFFFFFFFFFFFFFFFB
:10021300FFFFFFFFFFFFFFFFFFFFFF7F87F8FFFFEA
:10022300FF7F7EBDCF73BFDBDDBD7BFE7FBBDDDD2F
:10023300BB7FE79F5FBE7D73EF9F7FFFFFFFFFFFE6
:10024300FFFFFFFFFFFFFFFFFFFFFFFFFFFFFFFFBB
:10025300FFFFFFFFFFFFFFFFFFFFFF7F87F8FFFFAA
:10026300FF7F7EBDCF73BFDBDDBD7BFE7FBBDDDDEF
:10027300BB7FE79F5FBE7D73EF9F7FFFFFFFFFFFA6
:10028300FFFFFFFFFFFFFFFFFFFFFFFFFFFFFFFF7B
:10029300FFFFFFFFFFFFFFFFFFFFFFFCFD0DF2FC72
:1002A300FEFFFFEF1F3EDCE8EBEDDED7D6D4686B35
:1002B300EDF6F7EF1FFEFDF30EFEFEFFFFFFFFFF60
:1002C300FFFFFFFFFFFFFFFFFFFFFFFFFFFFFFFF3B
:1002D300FFFFFFFFFFFFFFFFFFFFFFFCFD0DF2FC32
:1002E300FEFFFFEF1F3EDCE8EBEDDED7D6D4686BF5
:1002F300EDF6F7EF1FFEFDF30EFEFEFFFFFFFFFF20
:10030300FFFFFFFFC3813C7EFEFEFDF9FDFEFA66A3
:10031300BD007EFEFEFDF9FDFEFA66BDC3FFFC7364
:10032300372FAFDEDFBFAC9BB7B76C6C6F6FB6B662
:10033300DBCBD5AA2F377BFCFFFFFFFFFFFFFFFFC0
:10034300FFFFFFFFC3813C7EFEFEFDF9FDFEFA6663
:10035300BD007EFEFEFDF9FDFEFA66BDC3FFFC7324
:10036300372FAFDEDFBFAC9BB7B76C6C6F6FB6B622
:10037300DBCBD5AA2F377BFCFFFFFFFFFFFFFFFF80
:10038300FFFFFFFFFFFFFFFEFCF9F3F7FBFDFEFF9F
:10039300FFFFFEFCF9F3F7FBFDFEFFDFDFC1C8DC67
:1003A300FFF8F7EFDFF8F2F2F8FCFEFCFCFEFCF8D6
:1003B300F2D2E8F7F8FFDCC8C1C3C7FFFFFFFFFFB6
:1003C300FFFFFFFFFFFFFFFEFCF9F3F7FBFDFEFF5F
:1003D300FFFFFEFCF9F3F7FBFDFEFFDFDFC1C8DC27
:1003E300FFF8F7EFDFF8F2F2F8FCFEFCFCFEFCF896
:1003F300F2D2E8F7F8FFDCC8C1C3C7FFFFFFFFFF76
:10046E001204031204CCE4F5087F407E001204F55A
:10047E00E50824B0FFE433FE1204F57F107E00126F
:10048E0004F57F047E001204F5E4F5097403250BD0
:10049E00F5827400350AF583E493F4FFE4F4FE125A
:1004AE000506050BE50B7002050A0509E509C3945F
:0E04BE008040D90508E508C3940840AD80FED3
:1004F500C2B2D2A5C2A6C2A700008F800000D2A7B3
:0105050022D3
:10050600C2B2D2A5D2A6C2A700008F800000D2A791
:0105160022C2
:10040300C2B3E4FF0FBF64FCC2B2D2B37FE27E008B
:100413001204F5E4FF0FBF64FC7FA17E001204F514
:100423007FC81204F57FA61204F57FA41204F57F9A
:10043300A21204F57FF81204F57F011204F57F81FF
:100443001204F57F231204F57F251204F57F2F1282
:1004530004F5E4FF0FBF64FC7F407E001204F57FC8
:0A046300AF1204F5E4FF0FBF64FCC4
:01046D00226C
:1004CC00E4FDED24B0FFE433FE1204F57F107E0052
:1004DC001204F57F041204F5E4FCE4FFFE12050699
:0804EC000CBC80F60DBD08DA1E
:0104F40022E5
:00000001FF
