:0C09FA00044C0023CA9904424A0F2A63EF
:10092500D2B5D2B4C2B6D2B7C2B77D107F1D1209F7
:04093500397D060FF3
:10093900E5A054C0FEEF543F4EF5A08D80C2B5D25C
:02094900B522D5
:10098300120925E4FD0F1209397D600F120939D2CE
:04099300B6C2B62210
:0803E4008F128E118D108C0F99
:1003EC00854F1A854E19854D18854C178F1B78082B
:1003FC001203D08F1CAF12AE11AD10AC0F781012CF
:10040C0003D08F1DAF12AE11AD10AC0F78181203C4
:10041C00D08F1EAF1BE4FCFDFEAB1AAA19A918A8BD
:10042C00171203608F168E158D148C138F46780857
:10043C001203BD8F168E158D148C13AF1CE4FCFDAE
:10044C00FEAB1AAA19A918A817120360E5162FF506
:10045C0016E5153EF515E5143DF514E5133CF513BD
:10046C00851647AF16AE15AD14FC78081203BD8F78
:10047C00168E158D148C13AF1DE4FCFDFEAB1AAA61
:10048C0019A918A817120360E5162FF516E5153EE5
:10049C00F515E5143DF514E5133CF513851648AF39
:1004AC0016AE15AD14FC78081203BD8F168E158D83
:1004BC00148C13AF1EE4FCFDFEAB1AAA19A918A8E4
:1004CC0017120360E5162FF516E5153EF515E51424
:1004DC003DF514E5133CF513851649AF16AE15AD75
:1004EC0014FC78081203BD8F168E158D148C138F87
:0804FC004A78081203BD8F4B82
:0105040022D4
:1008E500750E041203E47C06ECD394004010AF0EA1
:1008F500050E1C74462CF8E6FD12093980EAE50C54
:10090500FD7F21120939E50DFD0F120939E50CFDB1
:0F0915000F120939E50DFD0F120939D2B6C2B61E
:0109240022B0
:0805D3008F378E368D358C3414
:1005DB0085454185444085433F85423EAB41AA401A
:1005EB00A93FA83E1200FB8F378E368D358C34E435
:1005FB00FBFA7980784F1202041202DF8E3C8F3D9A
:10060B00AF37AE36AD35AC34C004C005C006C0073D
:10061B00AC3CAD3DE41202A6E4FBFA7980784F12B4
:10062B0000FBA804A905AA06AB07D007D006D00586
:10063B00D0041200068F378E368D358C341202DFC4
:10064B008F3B8E3A8D398C388F4678081203BD8FCD
:10065B0047AF3BAE3AAD39AC3878101203BD8F487B
:10066B00AF3BAE3AAD39AC3878181203BD8F498524
:06067B003D4AE53CF54B91
:010681002256
:080856008F688E678D668C65CA
:10085E00756B04AC651205D37C06ECD39400401086
:10086E00AF6B056B1C74462CF8E6FD12093980EA55
:10087E00E569FD7F21120939E56AFD0F120939E597
:10088E0069FD0F120939E56AFD0F120939D2B6C298
:01089E00B6A3
:01089F002236
:100997001209257D020F1209397D600F120939D21C
:0409A700B6C2B622FC
:08078A008F538E528D518C50EB
:10079200755A0F755BA075580475590AAC5012034F
:1007A200E47C06ECD394004010AF5805581C744604
:1007B2002CF8E6FD12093980EAAF57AE56AD55ACBA
:1007C200541203E47C06ECD394004010AF5905594F
:1007D2001C74462CF8E6FD12093980EAE55AFD7FC1
:1007E20021120939E55BFD0F120939E55AFD0F1295
:0D07F2000939E55BFD0F120939D2B6C2B618
:0107FF0022D7
:1009AB001209257D080F1209397D600F120939D202
:0409BB00B6C2B622E8
:08070E008E5C8F5DAB05AA04AF
:10071600E47561607560EAF55FF55E75620F756395
:10072600A0756404E55CFDE4FF120939E55DFD0F83
:10073600120939AD020F120939EBFD0F120939AF53
:1007460061AE60AD5FAC5E1203E47C06ECD3940050
:100756004010AF6405641C74462CF8E6FD12093996
:1007660080EAE562FD7F21120939E563FD0F120972
:1007760039E562FD0F120939E563FD0F120939D219
:03078600B6C2B642
:01078900224D
:1009BF00120925E4FD0F1209397D700F120939D282
:0409CF00B6C2B622D4
:020800008F71F6
:100802007F607EEA7D007C0075720F7573A075743F
:10081200041203E47C06ECD394004010AF74057418
:100822001C74462CF8E6FD12093980EAE572FD7F58
:1008320021120939E573FD0F120939E572FD0F1214
:100842000939E573FD0F120939AD710F120939D259
:03085200B6C2B675
:010855002280
:1008A000E4756F60756EEAF56DF56C75700412098C
:1008B00025E4FD0F1209397D600F120939AF6FAEC3
:1008C0006EAD6DAC6C1203E47C06ECD3940040106A
:1008D000AF7005701C74462CF8E6FD12093980EAE9
:0408E000D2B6C2B614
:0108E40022F1
:10094B00AB07AA06AD027F21120939EBFD0F120985
:10095B0039AD020F120939EBFD0F120939D2B6C2AC
:02096B00B622B2
:1009D3001209257D240F1209397D600F120939D2BE
:0409E300B6C2B622C0
:080505008F228E218D208C1F36
:10050D0075320F7533A0752F0475300A753110AC27
:10051D001F1203E47C06ECD394004010AF2F052F7F
:10052D001C74462CF8E6FD12093980EAAF26AE257B
:10053D00AD24AC231203E47C06ECD394004010AF41
:10054D003005301C74462CF8E6FD12093980EAAFEF
:10055D002AAE29AD28AC271203E47C06ECD3940017
:10056D004010AF3105311C74462CF8E6FD120939E7
:10057D0080EAAF2EAE2DAD2CAC2B78101203BDEF53
:10058D00540FFFAD077F1A120939AF2EAE2DAD2CCA
:10059D00AC2B78081203BDAD077F1B120939AD2EA8
:1005AD000F120939E532FD7F21120939E533FD0FAF
:1005BD00120939E532FD0F120939E533FD0F120924
:0505CD0039D2B6C2B6F0
:0105D2002206
:1009E700E4FDFCC3ED9FEC9E5008000DBD00010C1B
:0209F70080F18D
:0109F90022DB
:10096D00120983750C0F750DA07F807E967D987C86
:06097D00001208E580FEF7
:1000030002034BE86480F8E933E83360110460F0DD
:10001300ED33EC337009E8FCE9FDEAFEEBFF220463
:1000230060DED3EB9FEA9EE99DE8C2E78CF0C2F75E
:1000330095F0400CE8CCF8E9CDF9EACEFAEBCFFB2A
:1000430012031685D0F05804700320D5B3E804706A
:10005300075002B2D502035592D5EC0460F7E4CC05
:10006300C0E0C398F8603B94186008400DD0E0FBF3
:1000730002032DE4FBFAC9FC8028E830E406E4C956
:10008300FBE4CAFCE830E305E4C9CACBFCE8540747
:100093006010F8C3E913F9EA13FAEB13FBEC13FC52
:1000A300D8F130F52FC3E49CFCEF9BFFEE9AFEEDF5
:1000B30099FDD0E0FBEF4E4D4C701222DB0302039F
:1000C30052EC2CFCEF33FFEE33FEED33FDED30E766
:1000D300EB02032DEF2BFFEE3AFEED39FDD0E0FBF3
:1000E30050130BBB0003020355ED13FDEE13FEEF9C
:0800F30013FFEC13FC02032DC6
:1000FB00EC4D6011E8497017ED33EC3304600DE4FF
:10010B00FCFFFEFD22E933E8330470F802034B12C7
:10011B00031658046009E4CC2481500628500902C8
:10012B000355284003020352C0E0EB4A7044B980E8
:10013B0006D0E0FB020341EF4E701CBD8008EBFFC5
:10014B00EAFEE9FD80EBE98DF0A4FEE5F00201E4A7
:10015B00E9CDF9EAFEEBFFEF89F0A4FCE5F0CE89DF
:10016B00F0A42EFFE435F0CD89F0A42DFEE435F09C
:10017B008067EF4E7005BD80D780C3EF8BF0A4ACCA
:10018B00F0EE8BF0A42CFCE435F0F8EF8AF0A42C05
:10019B00E5F038FCE433CB8DF0A42CFCE5F03BF818
:1001AB00EE8AF0A42CFCE5F038F8E433CF89F0A408
:1001BB002CFCE5F038CF3400CE89F0A42FFFE5F00E
:1001CB003EFEE433C98DF0A42EFEE5F039CD8AF066
:1001DB00A42FFFE5F03EFEE43DFD33D0E0FB5007DE
:1001EB000BBB000F020355EC2CFCEF33FFEE33FE81
:0601FB00ED33FD02032DAF
:10020100020355EC5D046005E85904700302034BD9
:10021100120316580460F6EC4860F2EC7004FDFE1F
:10022100FF22C860DB2481C85009C39860025006D0
:100231000203529850CAF582E9294B4A7005AB82F4
:1002410002034175F0007C1A7880C3EF9BEE9AEDB2
:1002510099400DC3EF9BFFEE9AFEED99FDE842F048
:10026100DC23ACF0D0E0FFD0E0FED0E0FDAB82209B
:10027100E7101BEB60BAEC2CFCEF33FFEE33FEED25
:1002810033FD02032DE803F830E705C0F075F000F7
:10029100EF2FFFEE33FEED33FD40B830E7C280AA09
:1002A10075F020800E75F010800575F0087D007ED8
:1002B100007F003392D530D5031203AFEC334010E9
:1002C100EF33FFEE33FEED33FDEC33FCD5F0ED22E1
:0E02D100E5F0247EA2D513CC92E7CDCEFF221D
:1002DF00EDD2E7CD33EC3392D524814006E4FFFE17
:1002EF00FDFC22FCE4CFCECDCC24E0501174FF8076
:1002FF00EDC3CC13CCCD13CDCE13CECF13CF047013
:07030F00F030D5DE0203AF60
:10031600E9D2E7C933E833F892D5EDD2E7CD33EC2D
:0703260033FC5002B2D522A6
:10032D00EC30E7100FBF000C0EBE00080DBD000431
:10033D000BEB6014A2D5EB13FCED92E7FD2274FFDD
:10034D00FCFDFEFF22E480F8A2D574FF13FC7D8036
:03035D00E480EF4A
:0300000002068273
:0C068200787FE4F6D8FD7581740206C98B
:10036000E88FF0A4CC8BF0A42CFCE98EF0A42CFC3C
:100370008AF0EDA42CFCEA8EF0A4CDA8F08BF0A4BA
:100380002DCC3825F0FDE98FF0A42CCD35F0FCEB19
:100390008EF0A4FEA9F0EB8FF0A4CFC5F02ECD39DE
:0F03A000FEE43CFCEAA42DCE35F0FDE43CFC224B
:0E03AF00C3E49FFFE49EFEE49DFDE49CFC225F
:1003BD00E8600FECC313FCED13FDEE13FEEF13FF1E
:0303CD00D8F12242
:1003D000E86010ECA2E713FCED13FDEE13FEEF1343
:0403E000FFD8F02230
:10068E0002096DE493A3F8E493A34003F68001F20C
:10069E0008DFF48029E493A3F85407240CC8C3336D
:1006AE00C4540F4420C8834004F456800146F6DF3C
:1006BE00E4800B01020408102040809009FAE47EC9
:1006CE00019360BCA3FF543F30E509541FFEE49331
:1006DE00A360010ECF54C025E060A840B8E493A3F8
:1006EE00FAE493A3F8E493A3C8C582C8CAC583CA23
:1006FE00F0A3C8C582C8CAC583CADFE9DEE780BEDB
:010A060000EF
:00000001FF
