:0200000001fffe
:0200010001fffd
:0200020001fffc
:0200030001fffb
:0200040001fffa
:0200050001fff9
:0200060001fff8
:0200070001fff7
:0200080001fff6
:0200090001fff5
:02000a0001fff4
:02000b0001fff3
:02000c0001fff2
:02000d0001fff1
:02000e0001fff0
:02000f0001fef0
:0200100001feef
:0200110001feee
:0200120001feed
:0200130001feec
:0200140001feeb
:0200150001feea
:0200160001fee9
:0200170001fee8
:0200180001fee7
:0200190001fde7
:02001a0001fde6
:02001b0001fde5
:02001c0001fde4
:02001d0001fde3
:02001e0001fde2
:02001f0001fde1
:0200200001fde0
:0200210001fce0
:0200220001fcdf
:0200230001fcde
:0200240001fcdd
:0200250001fcdc
:0200260001fcdb
:0200270001fbdb
:0200280001fbda
:0200290001fbd9
:02002a0001fbd8
:02002b0001fbd7
:02002c0001fad7
:02002d0001fad6
:02002e0001fad5
:02002f0001fad4
:0200300001f9d4
:0200310001f9d3
:0200320001f9d2
:0200330001f9d1
:0200340001f9d0
:0200350001f8d0
:0200360001f8cf
:0200370001f8ce
:0200380001f7ce
:0200390001f7cd
:02003a0001f7cc
:02003b0001f7cb
:02003c0001f6cb
:02003d0001f6ca
:02003e0001f6c9
:02003f0001f5c9
:0200400001f5c8
:0200410001f5c7
:0200420001f5c6
:0200430001f4c6
:0200440001f4c5
:0200450001f4c4
:0200460001f3c4
:0200470001f3c3
:0200480001f3c2
:0200490001f2c2
:02004a0001f2c1
:02004b0001f2c0
:02004c0001f1c0
:02004d0001f1bf
:02004e0001f0bf
:02004f0001f0be
:0200500001f0bd
:0200510001efbd
:0200520001efbc
:0200530001efbb
:0200540001eebb
:0200550001eeba
:0200560001edba
:0200570001edb9
:0200580001ecb9
:0200590001ecb8
:02005a0001ecb7
:02005b0001ebb7
:02005c0001ebb6
:02005d0001eab6
:02005e0001eab5
:02005f0001e9b5
:0200600001e9b4
:0200610001e9b3
:0200620001e8b3
:0200630001e8b2
:0200640001e7b2
:0200650001e7b1
:0200660001e6b1
:0200670001e6b0
:0200680001e5b0
:0200690001e5af
:02006a0001e4af
:02006b0001e4ae
:02006c0001e3ae
:02006d0001e3ad
:02006e0001e2ad
:02006f0001e2ac
:0200700001e1ac
:0200710001e1ab
:0200720001e0ab
:0200730001e0aa
:0200740001dfaa
:0200750001deaa
:0200760001dea9
:0200770001dda9
:0200780001dda8
:0200790001dca8
:02007a0001dca7
:02007b0001dba7
:02007c0001daa7
:02007d0001daa6
:02007e0001d9a6
:02007f0001d9a5
:0200800001d8a5
:0200810001d8a4
:0200820001d7a4
:0200830001d6a4
:0200840001d6a3
:0200850001d5a3
:0200860001d4a3
:0200870001d4a2
:0200880001d3a2
:0200890001d3a1
:02008a0001d2a1
:02008b0001d1a1
:02008c0001d1a0
:02008d0001d0a0
:02008e0001cfa0
:02008f0001cf9f
:0200900001ce9f
:0200910001cd9f
:0200920001cd9e
:0200930001cc9e
:0200940001cb9e
:0200950001cb9d
:0200960001ca9d
:0200970001c99d
:0200980001c89d
:0200990001c89c
:02009a0001c79c
:02009b0001c69c
:02009c0001c69b
:02009d0001c59b
:02009e0001c49b
:02009f0001c39b
:0200a00001c39a
:0200a10001c29a
:0200a20001c19a
:0200a30001c09a
:0200a40001c099
:0200a50001bf99
:0200a60001be99
:0200a70001bd99
:0200a80001bd98
:0200a90001bc98
:0200aa0001bb98
:0200ab0001ba98
:0200ac0001b998
:0200ad0001b997
:0200ae0001b897
:0200af0001b797
:0200b00001b697
:0200b10001b597
:0200b20001b596
:0200b30001b496
:0200b40001b396
:0200b50001b296
:0200b60001b196
:0200b70001b195
:0200b80001b095
:0200b90001af95
:0200ba0001ae95
:0200bb0001ad95
:0200bc0001ac95
:0200bd0001ab95
:0200be0001ab94
:0200bf0001aa94
:0200c00001a994
:0200c10001a894
:0200c20001a794
:0200c30001a694
:0200c40001a594
:0200c50001a494
:0200c60001a493
:0200c70001a393
:0200c80001a293
:0200c90001a193
:0200ca0001a093
:0200cb00019f93
:0200cc00019e93
:0200cd00019d93
:0200ce00019c93
:0200cf00019b93
:0200d000019a93
:0200d100019a92
:0200d200019992
:0200d300019892
:0200d400019792
:0200d500019692
:0200d600019592
:0200d700019492
:0200d800019392
:0200d900019292
:0200da00019192
:0200db00019092
:0200dc00018f92
:0200dd00018e92
:0200de00018d92
:0200df00018c92
:0200e000018b92
:0200e100018a92
:0200e200018992
:0200e300018892
:0200e400018792
:0200e500018692
:0200e600018592
:0200e700018492
:0200e800018392
:0200e900018292
:0200ea00018192
:0200eb00018092
:0200ec00017f92
:0200ed00017e92
:0200ee00017d92
:0200ef00017c92
:0200f000017b92
:0200f100017a92
:0200f200017992
:0200f300017793
:0200f400017693
:0200f500017593
:0200f600017493
:0200f700017393
:0200f800017293
:0200f900017193
:0200fa00017093
:0200fb00016f93
:0200fc00016e93
:0200fd00016d93
:0200fe00016c93
:0200ff00016a94
:02010000016993
:02010100016893
:02010200016793
:02010300016693
:02010400016593
:02010500016493
:02010600016393
:02010700016194
:02010800016094
:02010900015f94
:02010a00015e94
:02010b00015d94
:02010c00015c94
:02010d00015b94
:02010e00015995
:02010f00015895
:02011000015795
:02011100015695
:02011200015595
:02011300015495
:02011400015296
:02011500015196
:02011600015096
:02011700014f96
:02011800014e96
:02011900014d96
:02011a00014b97
:02011b00014a97
:02011c00014997
:02011d00014897
:02011e00014797
:02011f00014598
:02012000014498
:02012100014398
:02012200014298
:02012300014198
:02012400013f99
:02012500013e99
:02012600013d99
:02012700013c99
:02012800013a9a
:0201290001399a
:02012a0001389a
:02012b0001379a
:02012c0001359b
:02012d0001349b
:02012e0001339b
:02012f0001329b
:0201300001309c
:02013100012f9c
:02013200012e9c
:02013300012d9c
:02013400012b9d
:02013500012a9d
:0201360001299d
:0201370001289d
:0201380001269e
:0201390001259e
:02013a0001249e
:02013b0001229f
:02013c0001219f
:02013d0001209f
:02013e00011ea0
:02013f00011da0
:02014000011ca0
:02014100011ba0
:020142000119a1
:020143000118a1
:020144000117a1
:020145000115a2
:020146000114a2
:020147000113a2
:020148000111a3
:020149000110a3
:02014a00010fa3
:02014b00010da4
:02014c00010ca4
:02014d00010ba4
:02014e000109a5
:02014f000108a5
:020150000107a5
:020151000105a6
:020152000104a6
:020153000103a6
:020154000101a7
:020155000100a7
:0201560000ffa8
:0201570000fda9
:0201580000fca9
:0201590000fba9
:02015a0000f9aa
:02015b0000f8aa
:02015c0000f6ab
:02015d0000f5ab
:02015e0000f4ab
:02015f0000f2ac
:0201600000f1ac
:0201610000efad
:0201620000eead
:0201630000edad
:0201640000ebae
:0201650000eaae
:0201660000e9ae
:0201670000e7af
:0201680000e6af
:0201690000e4b0
:02016a0000e3b0
:02016b0000e2b0
:02016c0000e0b1
:02016d0000dfb1
:02016e0000ddb2
:02016f0000dcb2
:0201700000dab3
:0201710000d9b3
:0201720000d8b3
:0201730000d6b4
:0201740000d5b4
:0201750000d3b5
:0201760000d2b5
:0201770000d1b5
:0201780000cfb6
:0201790000ceb6
:02017a0000ccb7
:02017b0000cbb7
:02017c0000c9b8
:02017d0000c8b8
:02017e0000c6b9
:02017f0000c5b9
:0201800000c4b9
:0201810000c2ba
:0201820000c1ba
:0201830000bfbb
:0201840000bebb
:0201850000bcbc
:0201860000bbbc
:0201870000b9bd
:0201880000b8bd
:0201890000b6be
:02018a0000b5be
:02018b0000b4be
:02018c0000b2bf
:02018d0000b1bf
:02018e0000afc0
:02018f0000aec0
:0201900000acc1
:0201910000abc1
:0201920000a9c2
:0201930000a8c2
:0201940000a6c3
:0201950000a5c3
:0201960000a3c4
:0201970000a2c4
:0201980000a0c5
:02019900009fc5
:02019a00009dc6
:02019b00009cc6
:02019c00009ac7
:02019d000099c7
:02019e000097c8
:02019f000096c8
:0201a0000094c9
:0201a1000093c9
:0201a2000091ca
:0201a3000090ca
:0201a400008ecb
:0201a500008dcb
:0201a600008bcc
:0201a700008acc
:0201a8000088cd
:0201a9000087cd
:0201aa000085ce
:0201ab000084ce
:0201ac000082cf
:0201ad000081cf
:0201ae00007fd0
:0201af00007ed0
:0201b000007cd1
:0201b100007bd1
:0201b2000079d2
:0201b3000078d2
:0201b4000076d3
:0201b5000075d3
:0201b6000073d4
:0201b7000071d5
:0201b8000070d5
:0201b900006ed6
:0201ba00006dd6
:0201bb00006bd7
:0201bc00006ad7
:0201bd000068d8
:0201be000067d8
:0201bf000065d9
:0201c0000064d9
:0201c1000062da
:0201c2000061da
:0201c300005fdb
:0201c400005edb
:0201c500005cdc
:0201c600005add
:0201c7000059dd
:0201c8000057de
:0201c9000056de
:0201ca000054df
:0201cb000053df
:0201cc000051e0
:0201cd000050e0
:0201ce00004ee1
:0201cf00004de1
:0201d000004be2
:0201d1000049e3
:0201d2000048e3
:0201d3000046e4
:0201d4000045e4
:0201d5000043e5
:0201d6000042e5
:0201d7000040e6
:0201d800003fe6
:0201d900003de7
:0201da00003be8
:0201db00003ae8
:0201dc000038e9
:0201dd000037e9
:0201de000035ea
:0201df000034ea
:0201e0000032eb
:0201e1000031eb
:0201e200002fec
:0201e300002ded
:0201e400002ced
:0201e500002aee
:0201e6000029ee
:0201e7000027ef
:0201e8000026ef
:0201e9000024f0
:0201ea000022f1
:0201eb000021f1
:0201ec00001ff2
:0201ed00001ef2
:0201ee00001cf3
:0201ef00001bf3
:0201f0000019f4
:0201f1000018f4
:0201f2000016f5
:0201f3000014f6
:0201f4000013f6
:0201f5000011f7
:0201f6000010f7
:0201f700000ef8
:0201f800000df8
:0201f900000bf9
:0201fa000009fa
:0201fb000008fa
:0201fc000006fb
:0201fd000005fb
:0201fe000003fc
:0201ff000002fc
:00000001FF
