:0200000001fffe
:0200010001fffd
:0200020001fffc
:0200030001fffb
:0200040001fffa
:0200050001fefa
:0200060001fef9
:0200070001fef8
:0200080001fef7
:0200090001fdf7
:02000a0001fdf6
:02000b0001fcf6
:02000c0001fcf5
:02000d0001fbf5
:02000e0001fbf4
:02000f0001faf4
:0200100001f9f4
:0200110001f9f3
:0200120001f8f3
:0200130001f7f3
:0200140001f6f3
:0200150001f5f3
:0200160001f5f2
:0200170001f4f2
:0200180001f3f2
:0200190001f2f2
:02001a0001f0f3
:02001b0001eff3
:02001c0001eef3
:02001d0001edf3
:02001e0001ecf3
:02001f0001eaf4
:0200200001e9f4
:0200210001e8f4
:0200220001e6f5
:0200230001e5f5
:0200240001e3f6
:0200250001e2f6
:0200260001e0f7
:0200270001def8
:0200280001ddf8
:0200290001dbf9
:02002a0001d9fa
:02002b0001d8fa
:02002c0001d6fb
:02002d0001d4fc
:02002e0001d2fd
:02002f0001d0fe
:0200300001ceff
:0200310001cc00
:0200320001ca01
:0200330001c802
:0200340001c603
:0200350001c305
:0200360001c106
:0200370001bf07
:0200380001bd08
:0200390001ba0a
:02003a0001b80b
:02003b0001b50d
:02003c0001b30e
:02003d0001b10f
:02003e0001ae11
:02003f0001ab13
:0200400001a914
:0200410001a616
:0200420001a417
:0200430001a119
:02004400019e1b
:02004500019b1d
:0200460001991e
:02004700019620
:02004800019322
:02004900019024
:02004a00018d26
:02004b00018a28
:02004c0001872a
:02004d0001842c
:02004e0001812e
:02004f00017e30
:02005000017b32
:02005100017735
:02005200017437
:02005300017139
:02005400016e3b
:02005500016a3e
:02005600016740
:02005700016442
:02005800016045
:02005900015d47
:02005a0001594a
:02005b0001564c
:02005c0001524f
:02005d00014f51
:02005e00014b54
:02005f00014856
:02006000014459
:0200610001415b
:02006200013d5e
:02006300013961
:02006400013564
:02006500013266
:02006600012e69
:02006700012a6c
:0200680001266f
:02006900012272
:02006a00011e75
:02006b00011b77
:02006c0001177a
:02006d0001137d
:02006e00010f80
:02006f00010b83
:02007000010786
:02007100010389
:0200720000ff8d
:0200730000fb90
:0200740000f694
:0200750000f297
:0200760000ee9a
:0200770000ea9d
:0200780000e6a0
:0200790000e2a3
:02007a0000dda7
:02007b0000d9aa
:02007c0000d5ad
:02007d0000d1b0
:02007e0000ccb4
:02007f0000c8b7
:0200800000c4ba
:0200810000bfbe
:0200820000bbc1
:0200830000b6c5
:0200840000b2c8
:0200850000aecb
:0200860000a9cf
:0200870000a5d2
:0200880000a0d6
:02008900009cd9
:02008a000097dd
:02008b000093e0
:02008c00008ee4
:02008d00008ae7
:02008e000085eb
:02008f000081ee
:02009000007cf2
:020091000078f5
:020092000073f9
:02009300006efd
:02009400006a00
:02009500006504
:02009600006107
:02009700005c0b
:0200980000570f
:02009900005312
:02009a00004e16
:02009b0000491a
:02009c0000451d
:02009d00004021
:02009e00003b25
:02009f00003728
:0200a00000322c
:0200a100002d30
:0200a200002933
:0200a300002437
:0200a400001f3b
:0200a500001b3e
:0200a600001642
:0200a700001146
:0200a800000d49
:0200a90000084d
:0200aa00000351
:0200ab0003fe52
:0200ac0003fa55
:0200ad0003f559
:0200ae0003f05d
:0200af0003ec60
:0200b00003e764
:0200b10003e268
:0200b20003de6b
:0200b30003d96f
:0200b40003d473
:0200b50003cf77
:0200b60003cb7a
:0200b70003c67e
:0200b80003c182
:0200b90003bd85
:0200ba0003b889
:0200bb0003b38d
:0200bc0003af90
:0200bd0003aa94
:0200be0003a697
:0200bf0003a19b
:0200c000039c9f
:0200c1000398a2
:0200c2000393a6
:0200c300038fa9
:0200c400038aad
:0200c5000385b1
:0200c6000381b4
:0200c700037cb8
:0200c8000378bb
:0200c9000373bf
:0200ca00036fc2
:0200cb00036ac6
:0200cc000366c9
:0200cd000361cd
:0200ce00035dd0
:0200cf000358d4
:0200d0000354d7
:0200d100034fdb
:0200d200034bde
:0200d3000347e1
:0200d4000342e5
:0200d500033ee8
:0200d600033aeb
:0200d7000335ef
:0200d8000331f2
:0200d900032df5
:0200da000328f9
:0200db000324fc
:0200dc000320ff
:0200dd00031c02
:0200de00031706
:0200df00031309
:0200e000030f0c
:0200e100030b0f
:0200e200030712
:0200e300030315
:0200e40002ff19
:0200e50002fb1c
:0200e60002f71f
:0200e70002f322
:0200e80002ef25
:0200e90002eb28
:0200ea0002e72b
:0200eb0002e32e
:0200ec0002df31
:0200ed0002db34
:0200ee0002d737
:0200ef0002d33a
:0200f00002d03c
:0200f10002cc3f
:0200f20002c842
:0200f30002c445
:0200f40002c147
:0200f50002bd4a
:0200f60002b94d
:0200f70002b64f
:0200f80002b252
:0200f90002af54
:0200fa0002ab57
:0200fb0002a859
:0200fc0002a45c
:0200fd0002a15e
:0200fe00029d61
:0200ff00029a63
:02010000029764
:02010100029367
:02010200029069
:02010300028d6b
:02010400028a6d
:02010500028670
:02010600028372
:02010700028074
:02010800027d76
:02010900027a78
:02010a0002777a
:02010b0002747c
:02010c0002717e
:02010d00026e80
:02010e00026b82
:02010f00026884
:02011000026685
:02011100026387
:02011200026089
:02011300025d8b
:02011400025b8c
:0201150002588e
:02011600025590
:02011700025391
:02011800025093
:02011900024e94
:02011a00024b96
:02011b00024997
:02011c00024798
:02011d0002449a
:02011e0002429b
:02011f0002409c
:02012000023d9e
:02012100023b9f
:020122000239a0
:020123000237a1
:020124000235a2
:020125000233a3
:020126000231a4
:02012700022fa5
:02012800022da6
:02012900022ba7
:02012a000229a8
:02012b000227a9
:02012c000226a9
:02012d000224aa
:02012e000222ab
:02012f000220ac
:02013000021fac
:02013100021dad
:02013200021cad
:02013300021aae
:020134000219ae
:020135000217af
:020136000216af
:020137000215af
:020138000214af
:020139000212b0
:02013a000211b0
:02013b000210b0
:02013c00020fb0
:02013d00020eb0
:02013e00020db0
:02013f00020cb0
:02014000020bb0
:02014100020ab0
:020142000209b0
:020143000208b0
:020144000207b0
:020145000207af
:020146000206af
:020147000205af
:020148000205ae
:020149000204ae
:02014a000204ad
:02014b000203ad
:02014c000203ac
:02014d000203ab
:02014e000202ab
:02014f000202aa
:020150000202a9
:020151000201a9
:020152000201a8
:020153000201a7
:020154000201a6
:020155000201a5
:020156000201a4
:020157000201a3
:020158000201a2
:020159000201a1
:02015a000201a0
:02015b0002029e
:02015c0002029d
:02015d0002029c
:02015e0002039a
:02015f00020399
:02016000020398
:02016100020496
:02016200020495
:02016300020593
:02016400020691
:02016500020690
:0201660002078e
:0201670002088c
:0201680002098a
:02016900020989
:02016a00020a87
:02016b00020b85
:02016c00020c83
:02016d00020d81
:02016e00020e7f
:02016f00020f7d
:0201700002107b
:02017100021179
:02017200021376
:02017300021474
:02017400021572
:0201750002176f
:0201760002186d
:0201770002196b
:02017800021b68
:02017900021c66
:02017a00021e63
:02017b00021f61
:02017c0002215e
:02017d0002235b
:02017e00022459
:02017f00022656
:02018000022853
:02018100022a50
:02018200022c4d
:02018300022d4b
:02018400022f48
:02018500023145
:02018600023342
:0201870002353f
:0201880002383b
:02018900023a38
:02018a00023c35
:02018b00023e32
:02018c0002402f
:02018d0002432b
:02018e00024528
:02018f00024725
:02019000024a21
:02019100024c1e
:02019200024f1a
:02019300025117
:02019400025413
:02019500025610
:0201960002590c
:02019700025c08
:02019800025e05
:02019900026101
:02019a000264fd
:02019b000266fa
:02019c000269f6
:02019d00026cf2
:02019e00026fee
:02019f000272ea
:0201a0000275e6
:0201a1000278e2
:0201a200027bde
:0201a300027eda
:0201a4000281d6
:0201a5000284d2
:0201a6000287ce
:0201a700028bc9
:0201a800028ec5
:0201a9000291c1
:0201aa000294bd
:0201ab000298b8
:0201ac00029bb4
:0201ad00029faf
:0201ae0002a2ab
:0201af0002a5a7
:0201b00002a9a2
:0201b10002ac9e
:0201b20002b099
:0201b30002b395
:0201b40002b790
:0201b50002bb8b
:0201b60002be87
:0201b70002c282
:0201b80002c67d
:0201b90002c979
:0201ba0002cd74
:0201bb0002d16f
:0201bc0002d56a
:0201bd0002d866
:0201be0002dc61
:0201bf0002e05c
:0201c00002e457
:0201c10002e852
:0201c20002ec4d
:0201c30002f048
:0201c40002f443
:0201c50002f83e
:0201c60002fc39
:0201c700030033
:0201c80003042e
:0201c900030829
:0201ca00030c24
:0201cb0003111e
:0201cc00031519
:0201cd00031914
:0201ce00031d0f
:0201cf0003210a
:0201d000032604
:0201d100032aff
:0201d200032efa
:0201d3000332f5
:0201d4000337ef
:0201d500033bea
:0201d600033fe5
:0201d7000344df
:0201d8000348da
:0201d900034cd5
:0201da000351cf
:0201db000355ca
:0201dc00035ac4
:0201dd00035ebf
:0201de000363b9
:0201df000367b4
:0201e000036cae
:0201e1000370a9
:0201e2000375a3
:0201e30003799e
:0201e400037e98
:0201e500038293
:0201e60003878d
:0201e700038b88
:0201e800039082
:0201e90003957c
:0201ea00039977
:0201eb00039e71
:0201ec0003a26c
:0201ed0003a766
:0201ee0003ac60
:0201ef0003b05b
:0201f00003b555
:0201f10003ba4f
:0201f20003be4a
:0201f30003c344
:0201f40003c83e
:0201f50003cc39
:0201f60003d133
:0201f70003d62d
:0201f80003da28
:0201f90003df22
:0201fa0003e41c
:0201fb0003e817
:0201fc0003ed11
:0201fd0003f20b
:0201fe0003f705
:0201ff0003fb00
:00000001FF
