:020000000000fe
:020001000003fa
:020002000006f6
:020003000009f2
:02000400000ded
:020005000010e9
:020006000013e5
:020007000016e1
:020008000019dd
:02000900001cd9
:02000a00001fd5
:02000b000022d1
:02000c000026cc
:02000d000029c8
:02000e00002cc4
:02000f00002fc0
:020010000032bc
:020011000035b8
:020012000038b4
:02001300003bb0
:02001400003fab
:020015000042a7
:020016000045a3
:0200170000489f
:02001800004b9b
:02001900004e97
:02001a00005193
:02001b0000548f
:02001c0000578b
:02001d00005a87
:02001e00005e82
:02001f0000617e
:0200200000647a
:02002100006776
:02002200006a72
:02002300006d6e
:0200240000706a
:02002500007366
:02002600007662
:0200270000795e
:02002800007c5a
:02002900007f56
:02002a00008252
:02002b0000854e
:02002c0000884a
:02002d00008b46
:02002e00008e42
:02002f0000913e
:0200300000943a
:02003100009736
:02003200009a32
:02003300009d2e
:0200340000a02a
:0200350000a326
:0200360000a622
:0200370000a91e
:0200380000ac1a
:0200390000af16
:02003a0000b212
:02003b0000b50e
:02003c0000b80a
:02003d0000bb06
:02003e0000be02
:02003f0000c1fe
:0200400000c4fa
:0200410000c6f7
:0200420000c9f3
:0200430000ccef
:0200440000cfeb
:0200450000d2e7
:0200460000d5e3
:0200470000d8df
:0200480000dadc
:0200490000ddd8
:02004a0000e0d4
:02004b0000e3d0
:02004c0000e6cc
:02004d0000e9c8
:02004e0000ebc5
:02004f0000eec1
:0200500000f1bd
:0200510000f4b9
:0200520000f6b6
:0200530000f9b2
:0200540000fcae
:0200550000ffaa
:020056000101a6
:020057000104a2
:0200580001079e
:0200590001099b
:02005a00010c97
:02005b00010f93
:02005c00011190
:02005d0001148c
:02005e00011788
:02005f00011985
:02006000011c81
:02006100011e7e
:0200620001217a
:02006300012476
:02006400012673
:0200650001296f
:02006600012b6c
:02006700012e68
:02006800013065
:02006900013361
:02006a0001355e
:02006b0001385a
:02006c00013a57
:02006d00013d53
:02006e00013f50
:02006f0001424c
:02007000014449
:02007100014745
:02007200014942
:02007300014b3f
:02007400014e3b
:02007500015038
:02007600015235
:02007700015531
:0200780001572e
:0200790001592b
:02007a00015c27
:02007b00015e24
:02007c00016021
:02007d0001631d
:02007e0001651a
:02007f00016717
:02008000016914
:02008100016c10
:02008200016e0d
:0200830001700a
:02008400017207
:02008500017404
:02008600017601
:020087000179fd
:02008800017bfa
:02008900017df7
:02008a00017ff4
:02008b000181f1
:02008c000183ee
:02008d000185eb
:02008e000187e8
:02008f000189e5
:02009000018be2
:02009100018ddf
:02009200018fdc
:020093000191d9
:020094000193d6
:020095000195d3
:020096000197d0
:020097000199cd
:02009800019acb
:02009900019cc8
:02009a00019ec5
:02009b0001a0c2
:02009c0001a2bf
:02009d0001a4bc
:02009e0001a5ba
:02009f0001a7b7
:0200a00001a9b4
:0200a10001abb1
:0200a20001acaf
:0200a30001aeac
:0200a40001b0a9
:0200a50001b1a7
:0200a60001b3a4
:0200a70001b5a1
:0200a80001b69f
:0200a90001b89c
:0200aa0001b99a
:0200ab0001bb97
:0200ac0001bd94
:0200ad0001be92
:0200ae0001c08f
:0200af0001c18d
:0200b00001c38a
:0200b10001c488
:0200b20001c685
:0200b30001c783
:0200b40001c881
:0200b50001ca7e
:0200b60001cb7c
:0200b70001cd79
:0200b80001ce77
:0200b90001cf75
:0200ba0001d172
:0200bb0001d270
:0200bc0001d36e
:0200bd0001d46c
:0200be0001d669
:0200bf0001d767
:0200c00001d865
:0200c10001d963
:0200c20001da61
:0200c30001dc5e
:0200c40001dd5c
:0200c50001de5a
:0200c60001df58
:0200c70001e056
:0200c80001e154
:0200c90001e252
:0200ca0001e350
:0200cb0001e44e
:0200cc0001e54c
:0200cd0001e64a
:0200ce0001e748
:0200cf0001e846
:0200d00001e944
:0200d10001ea42
:0200d20001eb40
:0200d30001ec3e
:0200d40001ec3d
:0200d50001ed3b
:0200d60001ee39
:0200d70001ef37
:0200d80001f035
:0200d90001f034
:0200da0001f132
:0200db0001f230
:0200dc0001f32e
:0200dd0001f32d
:0200de0001f42b
:0200df0001f529
:0200e00001f528
:0200e10001f626
:0200e20001f625
:0200e30001f723
:0200e40001f722
:0200e50001f820
:0200e60001f91e
:0200e70001f91d
:0200e80001f91c
:0200e90001fa1a
:0200ea0001fa19
:0200eb0001fb17
:0200ec0001fb16
:0200ed0001fc14
:0200ee0001fc13
:0200ef0001fc12
:0200f00001fd10
:0200f10001fd0f
:0200f20001fd0e
:0200f30001fd0d
:0200f40001fe0b
:0200f50001fe0a
:0200f60001fe09
:0200f70001fe08
:0200f80001fe07
:0200f90001ff05
:0200fa0001ff04
:0200fb0001ff03
:0200fc0001ff02
:0200fd0001ff01
:0200fe0001ff00
:0200ff0001ffff
:0201000001fffd
:0201010001fffc
:0201020001fffb
:0201030001fffa
:0201040001fff9
:0201050001fff8
:0201060001fff7
:0201070001fff6
:0201080001fef6
:0201090001fef5
:02010a0001fef4
:02010b0001fef3
:02010c0001fef2
:02010d0001fdf2
:02010e0001fdf1
:02010f0001fdf0
:0201100001fdef
:0201110001fcef
:0201120001fcee
:0201130001fced
:0201140001fbed
:0201150001fbec
:0201160001faec
:0201170001faeb
:0201180001f9eb
:0201190001f9ea
:02011a0001f9e9
:02011b0001f8e9
:02011c0001f7e9
:02011d0001f7e8
:02011e0001f6e8
:02011f0001f6e7
:0201200001f5e7
:0201210001f5e6
:0201220001f4e6
:0201230001f3e6
:0201240001f3e5
:0201250001f2e5
:0201260001f1e5
:0201270001f0e5
:0201280001f0e4
:0201290001efe4
:02012a0001eee4
:02012b0001ede4
:02012c0001ece4
:02012d0001ece3
:02012e0001ebe3
:02012f0001eae3
:0201300001e9e3
:0201310001e8e3
:0201320001e7e3
:0201330001e6e3
:0201340001e5e3
:0201350001e4e3
:0201360001e3e3
:0201370001e2e3
:0201380001e1e3
:0201390001e0e3
:02013a0001dfe3
:02013b0001dee3
:02013c0001dde3
:02013d0001dce3
:02013e0001dae4
:02013f0001d9e4
:0201400001d8e4
:0201410001d7e4
:0201420001d6e4
:0201430001d4e5
:0201440001d3e5
:0201450001d2e5
:0201460001d1e5
:0201470001cfe6
:0201480001cee6
:0201490001cde6
:02014a0001cbe7
:02014b0001cae7
:02014c0001c8e8
:02014d0001c7e8
:02014e0001c6e8
:02014f0001c4e9
:0201500001c3e9
:0201510001c1ea
:0201520001c0ea
:0201530001beeb
:0201540001bdeb
:0201550001bbec
:0201560001b9ed
:0201570001b8ed
:0201580001b6ee
:0201590001b5ee
:02015a0001b3ef
:02015b0001b1f0
:02015c0001b0f0
:02015d0001aef1
:02015e0001acf2
:02015f0001abf2
:0201600001a9f3
:0201610001a7f4
:0201620001a5f5
:0201630001a4f5
:0201640001a2f6
:0201650001a0f7
:02016600019ef8
:02016700019cf9
:02016800019afa
:020169000199fa
:02016a000197fb
:02016b000195fc
:02016c000193fd
:02016d000191fe
:02016e00018fff
:02016f00018d00
:02017000018b01
:02017100018902
:02017200018703
:02017300018504
:02017400018305
:02017500018106
:02017600017f07
:02017700017d08
:02017800017b09
:0201790001790a
:02017a0001760c
:02017b0001740d
:02017c0001720e
:02017d0001700f
:02017e00016e10
:02017f00016c11
:02018000016913
:02018100016714
:02018200016515
:02018300016316
:02018400016018
:02018500015e19
:02018600015c1a
:0201870001591c
:0201880001571d
:0201890001551e
:02018a00015220
:02018b00015021
:02018c00014e22
:02018d00014b24
:02018e00014925
:02018f00014726
:02019000014428
:02019100014229
:02019200013f2b
:02019300013d2c
:02019400013a2e
:0201950001382f
:02019600013531
:02019700013332
:02019800013034
:02019900012e35
:02019a00012b37
:02019b00012938
:02019c0001263a
:02019d0001243b
:02019e0001213d
:02019f00011e3f
:0201a000011c40
:0201a100011942
:0201a200011743
:0201a300011445
:0201a400011147
:0201a500010f48
:0201a600010c4a
:0201a70001094c
:0201a80001074d
:0201a90001044f
:0201aa00010151
:0201ab0000ff53
:0201ac0000fc55
:0201ad0000f957
:0201ae0000f659
:0201af0000f45a
:0201b00000f15c
:0201b10000ee5e
:0201b20000eb60
:0201b30000e961
:0201b40000e663
:0201b50000e365
:0201b60000e067
:0201b70000dd69
:0201b80000da6b
:0201b90000d86c
:0201ba0000d56e
:0201bb0000d270
:0201bc0000cf72
:0201bd0000cc74
:0201be0000c976
:0201bf0000c678
:0201c00000c479
:0201c10000c17b
:0201c20000be7d
:0201c30000bb7f
:0201c40000b881
:0201c50000b583
:0201c60000b285
:0201c70000af87
:0201c80000ac89
:0201c90000a98b
:0201ca0000a68d
:0201cb0000a38f
:0201cc0000a091
:0201cd00009d93
:0201ce00009a95
:0201cf00009797
:0201d000009499
:0201d10000919b
:0201d200008e9d
:0201d300008b9f
:0201d4000088a1
:0201d5000085a3
:0201d6000082a5
:0201d700007fa7
:0201d800007ca9
:0201d9000079ab
:0201da000076ad
:0201db000073af
:0201dc000070b1
:0201dd00006db3
:0201de00006ab5
:0201df000067b7
:0201e0000064b9
:0201e1000061bb
:0201e200005ebd
:0201e300005ac0
:0201e4000057c2
:0201e5000054c4
:0201e6000051c6
:0201e700004ec8
:0201e800004bca
:0201e9000048cc
:0201ea000045ce
:0201eb000042d0
:0201ec00003fd2
:0201ed00003bd5
:0201ee000038d7
:0201ef000035d9
:0201f0000032db
:0201f100002fdd
:0201f200002cdf
:0201f3000029e1
:0201f4000026e3
:0201f5000022e6
:0201f600001fe8
:0201f700001cea
:0201f8000019ec
:0201f9000016ee
:0201fa000013f0
:0201fb000010f2
:0201fc00000df4
:0201fd000009f7
:0201fe000006f9
:0201ff000003fb
:00000001FF
