:03000000020157A3
:0C015700787FE4F6D8FD758109020003F2
:100003001200881200F3E4F508E50824B0FFE43396
:10001300FE1201357F107E001201357F047E00122F
:100023000135E4F5097FFF7E001201467F017E0062
:1000330012011C0509E509C3948040E90508E50898
:10004300C3940840C4E4F508E508C3940850B7E531
:100053000824B0FFE433FE1201357F107E00120145
:10006300357F047E00120135E4F509E4FFFE120139
:10007300467F017E0012011C0509E509C3948040F7
:05008300EA050880C33E
:10011C00D3EF9400EE9400400F7D267C82DCFEDD54
:08012C00FAEF1F70EB1E80E8E2
:0101340022A8
:10013500C2B2D2A5C2A6C2A700008F800000D2A776
:010145002297
:10014600C2B2D2A5D2A6C2A700008F800000D2A755
:010156002286
:10008800C2B3E4FF0FBF64FCC2B2D2B37FE27E000A
:10009800120135E4FF0FBF64FC7FA17E0012013519
:1000A8007FC81201357FA61201357FA41201357F62
:1000B800A21201357FF81201357F011201357F81C7
:1000C8001201357F231201357F251201357F2F124A
:1000D8000135E4FF0FBF64FC7F407E001201357FCD
:0A00E800AF120135E4FF0FBF64FC06
:0100F20022EB
:1000F300E4FDED24B0FFE433FE1201357F107E00F2
:100103001201357F04120135E4FCE4FFFE120146BF
:080113000CBC80F60DBD08DAFA
:01011B0022C1
:00000001FF
